:020000040800F2
:10000000880600202902000835120008891100081E
:100010003112000831030008E1120008000000005E
:100020000000000000000000000000003D12000879
:1000300035030008000000003912000841120008D2
:10004000430200084302000843020008430200087C
:10005000430200084302000843020008430200086C
:10006000430200084302000843020008430200085C
:10007000430200084302000843020008430200084C
:10008000430200084302000843020008430200083C
:100090004302000843020008430200083903000835
:1000A000430200084302000843020008430200081C
:1000B000430200084302000843020008430200080C
:1000C00043020008430200084302000843020008FC
:1000D00043020008430200084302000843020008EC
:1000E00043020008430200084302000843020008DC
:1000F00043020008430200084302000843020008CC
:1001000043020008430200084302000843020008BB
:1001100043020008430200084302000843020008AB
:10012000430200084302000843020008430200089B
:10013000430200084302000843020008430200088B
:10014000430200084302000843020008430200087B
:10015000430200084302000843020008430200086B
:10016000430200084302000843020008430200085B
:100170004302000843020008430200080000000098
:10018000430200084302000800F002F800F03CF8C7
:100190000AA090E8000C82448344AAF10107DA45E2
:1001A00001D100F031F8AFF2090EBAE80F0013F0F8
:1001B000010F18BFFB1A43F001031847101200008B
:1001C00030120000103A24BF78C878C1FAD852071C
:1001D00024BF30C830C144BF04680C6070470000C1
:1001E0000023002400250026103A28BF78C1FBD840
:1001F000520728BF30C148BF0B6070471FB501F0E0
:10020000B8F81FBD10B510BD00F058F81146FFF743
:10021000F5FF01F067F800F076F803B4FFF7F2FF9E
:1002200003BC00F07DF800000948804709480047FA
:10023000FEE7FEE7FEE7FEE7FEE7FEE7FEE7FEE796
:10024000FEE7FEE704480549054A064B70470000F3
:10025000CD120008890100088800002088060020CF
:1002600088020020880200204FF0000200B51346EB
:1002700094469646203922BFA0E80C50A0E80C50C6
:10028000B1F12001BFF4F7AF090728BFA0E80C5077
:1002900048BF0CC05DF804EB890028BF40F8042B70
:1002A00008BF704748BF20F8022B11F0804F18BFDD
:1002B00000F8012B7047704770477047754600F093
:1002C0002BF8AE4605006946534620F007008546E8
:1002D00018B020B5FFF7B6FFBDE820404FF000068C
:1002E0004FF000074FF000084FF0000BAC46ACE8B1
:1002F000C009ACE8C009ACE8C009ACE8C00921F00D
:1003000007018D46704710B50446AFF300802046C4
:10031000BDE81040FFF781BF004870471000002083
:1003200001491820ABBEFEE726000200704700001E
:10033000FEE700007047000080B5402000F062F842
:10034000802000F05FF84FF4807000F05BF84FF40D
:100350000070BDE8804000F055B80000B0B504461C
:100360004FF09040154600F037F920704FF0904064
:10037000294600F031F9A1786070012909D051B9FE
:100380002278012A03D1E0B101281CD020E0012904
:1003900001D1217891B1E178002908BF012808D066
:1003A000012908BF002813D1217851B101290AD0B1
:1003B0000EE0217839B1012903D009E018B10128F4
:1003C00006D1012101E04FF0FF3162681144616004
:1003D0002178E070A170B0BD80B540F27C00C2F21F
:1003E000000040218022FFF7B9FF40F27000C2F206
:1003F00000004FF480714FF40072BDE88040FFF7B9
:10040000ADBF000040F21441C4F201010A6802428B
:1004100014BF08607047FFF7DFBF00002DE9F04F01
:1004200082B00A68002A00F0D18041F6000600F18F
:100430003844C4F60006072340F2004C4FEAB425C6
:10044000B04208BF0623C4F2010C062D38BF4FEAA4
:10045000B4234FF0000E012400270025009309E08B
:100460000A68013532FA05F307F102070EF1040EAE
:1004700000F0AC8004FA05F912EA0908F0D0D1F8CE
:1004800004A00AF00302A2F1010BBBF1010F11D885
:10049000D0F808B00323CE68BB402BEA0303BE406C
:1004A000334383604368CAF3001623EA0903AE406E
:1004B00033434360032A0BD1C36ACAF3C00623EA5D
:1004C0000903AE403343C362022A0ED020E000BFCE
:1004D0000323D0F80C9003FA07F68B6829EA060686
:1004E000BB403343C360022A12D16FF0030202EA19
:1004F000550202440EF01C060F23D2F8209003FA96
:1005000006FA0B6929EA0A09B34043EA09031362B0
:10051000026803234E68BB409A4306F00303BB40C6
:100520001A4316F4403F02609AD041F26003C4F2CD
:1005300002031A684FF6084A42F001021A601A686C
:10054000CFF6FF7A02F001020192019A25F0030230
:10055000624452F80A900EF00C060F23009CB34040
:1005600029EA030304FA06F6334342F80A30DCF8BA
:1005700008904B6849EA0806DA0258BF29EA0806DB
:1005800040F20C49CCF80860C4F20109D9F8002007
:100590009C0242EA080658BF22EA0806C9F8006031
:1005A000DCF804209E0342EA080458BF22EA08044B
:1005B000CCF80440DCF80020DB0342EA080458BF12
:1005C00022EA0804CCF80040012449E702B000F018
:1005D00000B830BCBDE8C08F0069084018BF0120DA
:1005E000704700001823002A08BF2823C150704715
:1005F00040F27800C2F200000068704740F2040048
:1006000040F27801C2F20000C2F2000100780A68EC
:10061000104408607047000080B5032000F08CF89B
:100620000F2000F009F800281CBF012080BD00F059
:100630002DF8002080BD0000B0B540F20401C2F2E8
:100640000001097801B3044640F20000C2F2000044
:100650004FF47A720068B2FBF1F1B0FBF1F000F0F8
:100660007DFD0F2C4FF001050CD858B94FF0FF302D
:1006700021460022002500F033F840F20800C2F2C3
:10068000000004602846B0BD0120B0BD82B041F238
:100690005800C4F20200816841F001018160816864
:1006A00001F0010101910199016841F0805101605F
:1006B000006800F080500090009802B07047000081
:1006C000002848BF704700F01F01012202FA01F123
:1006D0004EF200124009CEF2000242F8201070479C
:1006E00010B54EF60C5CCEF2000CDCF80030C3F313
:1006F000022E8EF00704042C28BF0424BEF103034D
:100700004FF0FF3E0EFA04F438BF0023A143994096
:100710000EFA03F39A43114300F1604200F00F0315
:10072000090102F56442043B6344002848BF03F119
:100730000C02117010BD00004EF60C51CEF20001FB
:100740000A684FF6FF031A4060F30A2242F0806005
:1007500040F0FD700860704747F2000CC4F2000CD6
:10076000DCF80020B0F5007F02F4C0602BD1B0F5BA
:10077000007F26D0DCF80000012262F34A20CCF88A
:10078000000040F20000C2F200000068322358432B
:100790004DF68363C4F21B33A0FB030302EB9340CB
:1007A000002200BFDCF81410013842F100034905B3
:1007B00001D5002BF6D1DCF81400400544BF03201E
:1007C000704700207047B0F5806FFAD0DCF8000069
:1007D000022161F34A20CCF800000020704700009D
:1007E00047F20000C4F20000006800F4C0607047E7
:1007F0002DE9F04381B0002800F0888042F2000823
:10080000C4F202080446D8F800000D4600F00700C4
:1008100088420CD2D8F8000020F007002843C8F81E
:100820000000D8F8000000F00700A8426ED1206850
:1008300041F208098107C4F202090DD5A168D9F86F
:10084000002002F0F002914206D9D9F8002022F0EF
:10085000F0021143C9F80010C0074DD1206881078C
:100860000DD5A168D9F8002002F0F002914206D21D
:10087000D9F8002022F0F0021143C9F80010D8F88E
:10088000001001F00701A9420CD9D8F8001021F09E
:1008900007012943C8F80010D8F8001001F007013B
:1008A000A94233D1410707D5D9F80010E26821F4F5
:1008B000E0611143C9F80010000708D5D9F800001D
:1008C000216920F4605040EAC100C9F80000D9F85D
:1008D0000000D9F8041010F00C0005D00C2837D116
:1008E00001F00301012933D159F8081C090711D47B
:1008F000D9F88C10090A10E0606898B3022853D028
:10090000032856D159F8081C89012FD4012001B0C1
:10091000BDE8F08359F8081C090941F29C3201F046
:100920000F01C0F6000252F8211000280A4618BF35
:1009300000220C285BD1D9F8040000F00300022843
:100940003CD0032804BF41F20021C0F27A0139E013
:10095000042868D008286CD141F200220021C0F29E
:100960007A02E6E759F8081C8907CFD5D9F80010B4
:1009700021F003010843C9F80000FFF739FE0646DD
:1009800041F28837D9F80000616800F00C00B0EB44
:10099000810F3FF463AFFFF72BFE801BB842F1D904
:1009A000032001B0BDE8F08359F8081C8903ADD5D8
:1009B000DCE759F8081C4905A8D5D7E742F2004101
:1009C000C0F2F401D9F80400D9F80420C0F30210F1
:1009D000C2F306225143D9F804200130B1FBF0F0F4
:1009E000C2F34161022202EB4101B0FBF1F2D9F8FE
:1009F000000041F28C31C0F30310C0F60001085C26
:100A000000F01F0022FA00F140F20800C2F20000DC
:100A100040F200020068C2F20002116001B0BDE8BD
:100A2000F043FFF709BE42F200420021C0F2F40297
:100A30007FE7002200217CE72DE9F04383B0002806
:100A400000F0E38241F200060446C4F20206B068F8
:100A5000F168227800F00C09D00601F003081DD4DB
:100A60002078C00700F0EF80B9F1080F44D0B9F149
:100A70000C0F08BFB8F1030F3ED06568B5F5A02F85
:100A800000F0BD80B5F5803F00F0BD80306820F4F7
:100A900080303060306820F48020B7E0B9F1000F7A
:100AA0001BD0B9F10C0F08BFB8F1010F15D0A16927
:100AB0003068002971D040F001003060FFF798FDE8
:100AC000054600BF306880077AD4FFF791FD401BD0
:100AD00002284FF00300F5D9F2E23068800703D511
:100AE000A069002800F09182256A306800070CD4C4
:100AF000D6F89400000909E03068800340F1A38033
:100B00006068002840F09F807FE2306800F0F000CD
:100B1000854219D9B06DC00064D4B06D40F08050EA
:100B2000B065B06D00F0805001900198FFF758FE5D
:100B3000B16D21F08051B165B0F5007F57D0802DA7
:100B400040F2F4810320FBE13068B9F1000F40F07E
:100B500008003060306820F0F00040EA05003060A6
:100B60007068E16920F47F4040EA0120706040F045
:100B70003A82B06DC00000F10382B06D40F0805049
:100B8000B065B06D00F0805002900298FFF728FE2B
:100B9000B16D21F08051B165F4E120F001003060C9
:100BA000FFF726FD054600BF306880077FF558AF88
:100BB000FFF71EFD401B02284FF00300F4D97FE22F
:100BC000306840F0080030603068D4E9072120F038
:100BD000F00008433060706820F47F4040EA022053
:100BE00070603DE7FFF7FCFDB0F5007FA7D1812DD8
:100BF000C0F0A5810120A02D88BF0220A0E13068AF
:100C000040F480203060306840F480303060FFF77E
:100C1000EFFC002D054613D03068800313D4FFF796
:100C2000E7FC401B64284FF00300F5D948E200BF01
:100C3000FFF7DEFC401B64284FF0030000F2408207
:100C400030688003F4D4207880072CD5B9F1040FE4
:100C50001BD0B9F10C0F08BFB8F1020F15D0E16835
:100C60003068002900F04F8140F480703060FFF759
:100C7000BFFC0546306840050ED4FFF7B9FC401BA9
:100C800002284FF00300F5D91AE23068400503D579
:100C9000E068002800F0B9817068216920F0F85000
:100CA00040EA01607060207800075ED42078400739
:100CB00075D4A06A002800F07A81022840F0B9803B
:100CC000F068E16A00F003028A4240F0C980226BBA
:100CD0006FF00F0300F0700103EB0212914240F03D
:100CE000BF80616B00F4FE42B2EB012F40F0B88090
:100CF000A16B00F40032073918BF01218A4240F08D
:100D0000AF80E26B0023CFF6E07303EA025200F4F7
:100D1000C001A2F50012914240F0A280216C4FF078
:100D20007E4202EA016100F0C06001F17E4188422A
:100D300040F096803068800100F13981306840F0E1
:100D400080703060F06840F08070F060FFF750FC19
:100D500004463068800100F12A81FFF749FC001B3E
:100D600002284FF00300F4D9AAE16169D6F8940093
:100D700000294AD040F00100C6F89400FFF738FC83
:100D8000054600BFD6F8940080078FD4FFF730FCEB
:100D9000401B0228F6D9032003B0BDE8F083B06DF4
:100DA00010F0805808D1B06D40F08050B065B06D43
:100DB00000F080500090009847F20007C4F200074E
:100DC0003868C00511D4386840F480703860FFF787
:100DD0000FFC05463868C00507D4FFF709FC401B27
:100DE00002284FF00300F5D96AE1A568052D56D019
:100DF000012D5AD0D6F8900020F00100C6F89000DE
:100E0000D6F8900020F0040053E020F00100C6F86E
:100E10009400FFF7EDFB0546D6F8940080077FF5B8
:100E200045AFFFF7E5FB401B02284FF00300F3D965
:100E300046E1B9F10C0F00F0E880306820F08070D6
:100E40003060FFF7D5FB04463068800140F1A88090
:100E5000FFF7CEFB001B02284FF00300F4D92FE16F
:100E6000B9F10C0F00F0D180306840015CBF3068F0
:100E70005FEAC00000F1C980306820F08070306007
:100E8000FFF7B6FB05463068800140F12581FFF78A
:100E9000AFFB401B02284FF00300F4D910E1D6F855
:100EA000900040F00400C6F89000D6F8900040F0A2
:100EB0000100C6F89000FFF79BFB002D054641F2AC
:100EC000883713D0D6F89000800713D4FFF790FB33
:100ED000401BB8424FF00300F4D9F1E0FFF788FB64
:100EE000401BB8424FF0030000F2EA80D6F89000B1
:100EF0008007F3D4B8F1000F7FF4DBAEB06D20F0C3
:100F00008050B065D5E620F480703060FFF770FB4C
:100F1000054600BF306840057FF5C5AEFFF768FBAA
:100F2000401B02284FF00300F4D9C9E0A5F170007E
:100F3000B0FA80F04009802D08BF022000E00020B8
:100F400042F20001C4F202010A6822F007020244E0
:100F50000A60096801F00701814256D1306840F00B
:100F6000080030603068D4E9072120F0F000084321
:100F70003060706820F47F4040EA0220706032E008
:100F8000FFF72EFCB0F5007F06D1812D13D3012091
:100F9000A02D88BF022018E0802D0ED9032014E078
:100FA000F0684FF6FC71CFF6EE610840F06000206B
:100FB00003B0BDE8F083002007E0A5F17000B0FAAF
:100FC00080F04009802D08BF022042F20001C4F2E7
:100FD00002010A6822F0070202440A60096801F06F
:100FE0000701814211D1B068F16810F00C0005D002
:100FF0000C282AD101F00301012926D13168090703
:1010000007D4D6F89410090A05E0012003B0BDE822
:10101000F0833168090941F29C3201F00F01C0F6FA
:10102000000252F8211000280A4618BF00220C289E
:101030002BD1F06800F00300022810D0032804BF71
:1010400041F20021C0F27A010DE004283BD00828CB
:101050003FD141F200220021C0F27A02E7E742F2DA
:101060000041C0F2F401F068F268C0F30210C2F36C
:1010700006225143F2680130B1FBF0F0C2F3416146
:10108000022202EB4101B0FBF1F2B06841F28C3177
:10109000C0F30310C0F60001085C00F01F0022FA44
:1010A00000F140F20800C2F2000040F200020068C5
:1010B000C2F200021160FFF7BFFA00283FF4D0AC83
:1010C00003B0BDE8F08342F200420021C0F2F40216
:1010D000ADE700220021AAE7F06848F28C01CFF6C4
:1010E0009D1104F12C0700EA010C8ECFD4E90F54B6
:1010F0006FF00F0040F2000E00EB0210CFF6E07E22
:1011000041EA0C010EEA05554FF07E420843A5F571
:10111000001502EA046240EA032002F17E420EF565
:10112000F014284304EA473710433843F06030682E
:1011300040F080703060F06840F08070F060FFF741
:1011400057FA0446306880013FF531AFFFF750FA97
:10115000001B02284FF00300F4D9B1E7411E002024
:10116000B0EB116F1CBF012070474EF21002CEF29F
:10117000000251604EF62351CEF20001F0230B70B5
:101180000721906011607047FEE7000070B586B0DF
:1011900000200590CDE90300CDE9010041F24C00AB
:1011A000C4F202000168002241F080010160016880
:1011B000202401F0800100910099016841F00101B3
:1011C00001600068202100F00100009000984FF0BD
:1011D0009040FFF707FA0194032001AC0125049029
:1011E0004FF090402146CDE90255FFF717F9C02096
:1011F00001904FF444164FF090402146CDE902652E
:10120000FFF70CF94FF44070CDE90106022003907E
:101210004FF090402146FFF701F9172000210022EE
:10122000FFF75EFA1720FFF74BFA06B070BD00001B
:10123000FEE70000FEE70000704700007047000076
:10124000FFF7DCB910B596B005A84421FFF70CF8FC
:1012500000244FF400700494CDE90244CDE9004429
:10126000FFF77AFA18B1EFF3108072B6FEE710209C
:101270006021059001200D910221CDE90B04CDE9FB
:101280000F101190142012900720CDE9130105A82A
:101290001591FFF7D1FB20B1EFF3108072B600BFBC
:1012A000FEE70F200090032001900020CDE902000E
:1012B000049068460221FFF79BFA20B1EFF31080FB
:1012C00072B600BFFEE716B010BD00004EF68850A3
:1012D000CEF20000016841F4700101607047000027
:1012E000FEE700004FF090404021FFF775F940F213
:1012F0007C05C2F2000528704FF090408021FFF776
:101300006BF968704FF090404021FFF765F9A870C5
:101310004FF090408021FFF75FF9E87000244FF014
:1013200090404FF480716C60FFF756F940F2700501
:10133000C2F2000528704FF090404FF40071FFF7A3
:101340004BF968704FF090404FF48071FFF744F90B
:10135000A8704FF090404FF40071FFF73DF9E8702E
:101360006C60FFF759F9FFF76DFFFFF70FFF00BF44
:10137000FEE7F1EE100A4FF6FF71C0F2C03120EA2D
:10138000010040F04070E1EE100A704700000000DC
:10139000000000000102030406070809A0860100FE
:1013A000400D0300801A060000350C0040420F007B
:1013B00080841E0000093D0000127A000024F40021
:1013C00000366E010048E801006CDC02F0130008F2
:1013D0000000002010000000C401000800140008F4
:1013E0001000002078060000E00100080000000066
:1013F00000093D0001000000100000000000000096
:040000050800018965
:00000001FF
