:020000040800F2
:10000000800800203102000871300008212D00080E
:100010006D30000865080008653B0008000000001E
:10002000000000000000000000000000253400086F
:100030006908000800000000753000083534000829
:100040004B0200084B0200084B0200084B0200085C
:100050004B0200084B0200084B0200084B0200084C
:100060004B0200084B0200084B0200084B0200083C
:100070004B0200084B0200084B0200084B0200082C
:100080004B0200084B0200084B0200084B0200081C
:100090004B0200084B0200084B0200084B0200080C
:1000A0004B0200084B0200084B0200084B020008FC
:1000B000D53400084B0200084B0200084B02000830
:1000C0004B0200084B0200084B0200084B020008DC
:1000D0004B0200084B0200084B0200084B020008CC
:1000E0004B0200084B0200084B0200084B020008BC
:1000F0004B0200084B0200084B0200084B020008AC
:100100004B0200084B0200084B0200084B0200089B
:100110004B0200084B0200084B0200084B0200088B
:100120004B0200084B0200084B0200084B0200087B
:100130004B0200084B0200084B0200084B0200086B
:100140004B0200084B0200084B0200084B0200085B
:100150004B0200084B0200084B0200084B0200084B
:100160004B0200084B0200084B0200084B0200083B
:100170004B0200084B0200084B0200080000000080
:100180004B0200084B02000800F002F800F041F8B2
:100190000AA090E8000C82448344AAF10107DA45E2
:1001A00001D100F036F8AFF2090EBAE80F0013F0F3
:1001B000010F18BFFB1A43F001031847043B00006E
:1001C000243B0000103A24BF78C878C1FAD85207FF
:1001D00024BF30C830C144BF04680C6070470000C1
:1001E0000023002400250026103A28BF78C1FBD840
:1001F000520728BF30C148BF0B607047642900F028
:100200000381002070471FB503F021FD1FBD10B50D
:1002100010BD00F0D9F91146FFF7F5FF03F0A4FC7B
:1002200000F0F7F903B4FFF7F2FF03BC00F0FEF9AA
:100230000948804709480047FEE7FEE7FEE7FEE77A
:10024000FEE7FEE7FEE7FEE7FEE7FEE704480549B6
:10025000054A064B70470000C134000889010008B8
:1002600080020020800800208004002080040020FC
:1002700053EA020C00F069802DE9F04B4FF00006C4
:10028000002B1FBFB3FA83F503FA05F424FA05F631
:100290005E4012BF1643B2FA82F502FA05F4C5F1C8
:1002A00020051EBF22FA05FC44EA0C04203556EA5C
:1002B000044C4FEA144418BF641C4FF000084FF080
:1002C0000009904271EB030C39D3002919BFB1FA30
:1002D00081F701FA07F6B0FA80F700FA07F6C7F1DE
:1002E00020071EBF20FA07FC46EA0C062037B6FBA3
:1002F000F4FCA7EB0507103F07F01F0BCBF120061E
:100300002CFA06F60CFA0BFB44BFB3460026202F4E
:10031000A4BF5E464FF0000B5BEA060C08BF4FF02F
:10032000010B19EB0B0948EB0608ABFB027C06FB43
:1003300002CC0BFB03CCC01B71EB0C01C1E70B46DD
:10034000024641464846BDE8F08B13B5084318BF46
:100350004FF0FF300146AFF30080BDE81C4070470E
:100360000FB41CB50C0007AA009007D04142A1426F
:1003700002D32044401E01E04FF0FF30074B7B4486
:1003800069460190069800F004F90020002C01D085
:10039000009908701CBC5DF814FB000037020000D7
:1003A0002DE9F0410E460446002020622046E16817
:1003B000884730B3252805D0D4E901219047206A29
:1003C000401CF2E7E168204600278847050018D066
:1003D000A5F14100192802D820354FF400673246B4
:1003E000294620462760FFF709FF40B1012804D0C5
:1003F000F61D26F007060836D8E7361DD6E728464C
:10040000DAE7206ABDE8F0812DE9F04106460024D4
:1004100010687529314616A510D0AFF3008000286A
:1004200002DA404213A507E031688A0701D512A518
:1004300002E0490704D511A5012401E0AFF30080D3
:1004400000210A2206F1240709E0B0FBF2FCB0FB10
:10045000F2F302FB1C00303078541846491C002887
:10046000F3D123462A463046BDE8F04100F032B8C9
:10047000000000002D0000002B0000002000000004
:100480004FF0000200B5134694469646203922BF2D
:10049000A0E80C50A0E80C50B1F12001BFF4F7AF78
:1004A000090728BFA0E80C5048BF0CC05DF804EB5A
:1004B000890028BF40F8042B08BF704748BF20F8C8
:1004C000022B11F0804F18BF00F8012B70477047C6
:1004D000704770472DE9F0470D469946924604460D
:1004E00000F124080168880604D5E06921F01001B4
:1004F000216000E00120A84201DD471B00E0002749
:10050000A1697A1902EB0900081AA0612078C006D7
:1005100002D42046AFF30080002608E0D4E9012190
:100520001AF806009047206A401C761C20624E454F
:10053000F4DB2078C0060AD52046AFF3008006E041
:10054000D4E9012130209047206A401C2062381EE7
:10055000A7F10107F4DC07E0D4E9012118F8050050
:100560009047206A401C2062281EA5F10105F3DC9B
:100570002046AFF300802078000602D50220BDE8B7
:10058000F0870120FBE7000001694A1C026108783E
:10059000704700B58FB0CDE90131002105910549C3
:1005A0007944CDE9031011466846FFF7F9FE0FB014
:1005B00000BD0000E5FFFFFFD1E900239A4202D20F
:1005C000531C0B6010707047754600F02BF8AE4658
:1005D00005006946534620F00700854618B020B54F
:1005E000FFF734FEBDE820404FF000064FF0000753
:1005F0004FF000084FF0000BAC46ACE8C009ACE887
:10060000C009ACE8C009ACE8C00921F007018D467B
:10061000704710B50446AFF300802046BDE8104097
:10062000FFF700BE00487047100000200149182065
:10063000ABBEFEE7260002007047000070B504461E
:1006400000688268836802F0040203F00803D2188D
:100650005FD0C268920113D5627E012A10D1227E3A
:10066000012A0DD10168490607D40121CAF240319F
:10067000013944D002685206FAD5402101600121B7
:10068000022911D0826852070AD58268920707D4DE
:1006900082684FF6C073C7F6FF731A40103282604B
:1006A000012901D1042614E0826812070AD5826864
:1006B000920707D482684FF6C073C7F6FF731A40DB
:1006C000203282600426022908BF0826032908BFB9
:1006D0000C2600F021FE21688968314219D00546B8
:1006E00004E000BF20688068304212D000F014FEA1
:1006F000401B0628F6D3206880683042F2D0606D37
:1007000040F010006065A06D40F00100A065012080
:1007100070BD002070BD0000B0B5016804468A6855
:100720008868C0074FF0000032D012F0020218BFF4
:10073000B0BD886800F00D00012820D188684FF610
:10074000C072C7F6FF721040023088600320086054
:1007500000F0E2FD21688968C90704BF0020B0BD30
:10076000054603E020688068C00712D000F0D4FD81
:10077000401B0328F6D320688068C007F2D0606D64
:1007800040F010006065A06D40F00100A065012000
:10079000B0BD0020B0BD000070B582B0044600209E
:1007A000019021688A68D20711D14FF6C076C7F64A
:1007B000FF76886806F17F0210420AD0606D40F033
:1007C00010006065A06D40F00100A065012002B03E
:1007D00070BD8868304040F00100886040F2083009
:1007E000C5F204000068000221D400F095FD2168E4
:1007F0000A68D20718D1054604E000BF21680868DE
:10080000C00711D18868C00704D18868304040F023
:100810000100886000F080FD401B0328EED32068B3
:100820000068C007EAD1C9E7002002B070BD40F2FD
:100830000000C2F20000006842F663518009C0F275
:100840003E51A0FB0101880900EB40000C2101EBA7
:10085000800000BF019001980028C6D0019801389F
:10086000F8E70000FEE7000070470000EFF310809B
:1008700072B600BFFEE70000B0B582B090F850201D
:10088000012A01D1022146E0012380F850300023E3
:1008900040F2083401930093C5F204040368A4F500
:1008A000427293422FD14FF6006ECFF6FF7E54F87E
:1008B0000E209B681A43520725D4D1F800C0226845
:1008C000BCF1000F22F4604328D04A6890F8305001
:1008D00042EA45321A4322604FF60052CFF6FF72C9
:1008E000A25854F80E306FF0FF0565591A432A4399
:1008F000D20727D1226840F61F7389689A431143B3
:1009000041EA0C011DE0416D41F0200141650121EA
:10091000002280F85020084602B0B0BD4FF60051CA
:100920002360CFF6FF71615854F80E206FF0FF037B
:10093000E35811431943C90704D1216840F61F72D7
:10094000914321600021E3E7F0B581B000220092DD
:1009500090F85020012A01D1022172E10123076899
:1009600080F85030BB685B0700F18D804B68052B29
:1009700008D8A3F1020CBCF1030F9ABFB2A353F83D
:100980002C300623C3F301240A6807EB8404256B8B
:1009900003F01F031F269E40C2F3846225EA060669
:1009A0009A4032432263BA68BB6802F0040203F043
:1009B0000803D21840F082800A688B68C2F3406650
:1009C00007EB86067569C2F3045207249440A543D9
:1009D00003FA02F22A437261D1E9043CD7F80CE031
:1009E000042B56D13A6E3A6E0B68C2F3846293FAC6
:1009F000A3F6B6FA86F65D0308BFC3F384664FF626
:100A0000FF73B242C0F2070303D13A6E22F00042F4
:100A10003A667A6E7A6E0E68C2F3846296FAA6F52A
:100A2000B5FA85F51E4208BFC6F38465AA4203D114
:100A30007A6E22F000427A66BA6EBA6E0E68C2F31F
:100A4000846296FAA6F5B5FA85F51E4208BFC6F38C
:100A50008465AA4203D1BA6E22F00042BA66FA6EE9
:100A6000FA6E0E68C2F3846296FAA6F5B5FA85F5B9
:100A70001E4208BFC6F38465AA421FD1FA6E22F057
:100A80000042FA661AE0416D41F020014165012102
:100A9000D4E006220E6807EB830302EA9E021D6E75
:100AA0004FF200040CFA02F2C0F2FF3406F0F846EE
:100AB000254032432A4342F000421A66BA68D20700
:100AC00045D1D1F800C0CA684FF6FF74D7F8B060BE
:100AD000634602F01805C0F207046FF3DF4324FAFF
:100AE00005F59E4305EA0C052E430025C4F27F055B
:100AF000AA42C7F8B0602AD19CFAACF2B2FA82F2EC
:100B0000002B08BF4FEA9C62013202F01E0302F084
:100B10001F0201260025964002EB4202CFF6206517
:100B200005EB0255354345F000750A2B38BF46EA00
:100B30000255C5F3406307EB83038A685E69C5F31A
:100B400004550724AC40A643AA4032435A610968C1
:100B50000022C8F2080211426FD040F2083CC5F2F0
:100B6000040CDCF800300022CCF25272914203F007
:100B7000E07E08BF13F400021ED00022CCF68432BF
:100B8000914208BF13F0807245D00122C8F20002E2
:100B900091424FF0000108BF13F480024ED1ACF532
:100BA000427297424AD1DCF8001021F0E07141EA2C
:100BB0000E0141F480013EE040F2002247F4007152
:100BC000C5F20402914238D1DCF8001042F66352BB
:100BD00021F0E07141EA0E0141F40001CCF800106F
:100BE00040F20001C2F200010968C0F23E528909D8
:100BF000A1FB0212910901EB41010C2202EB8101E0
:100C000000910099C9B100BF009901390091009984
:100C10000029F9D111E040F2002247F40071C5F239
:100C20000402914209D1DCF8001021F0E07141EAA0
:100C30000E0141F08071CCF800100021002280F8F4
:100C40005020084601B0F0BD0C000000120000006A
:100C500018000000000100000068006C70470000F0
:100C6000B0B582B004460020002C019045D0606DE4
:100C700030B9204600F0E0F80020A06584F850006C
:100C800021688868800006D588684FF6C072C5F66E
:100C9000FF72104088608868C00021D44FF6C0728F
:100CA0008868C5F6FF7202F18052104000F1805052
:100CB000886040F20000C2F20000006842F6635211
:100CC0008009C0F23E52A0FB02029009022202EB10
:100CD000400000BF0190019810B101980138F9E778
:100CE0008868C0000CD4606D40F010006065A06D95
:100CF00040F00100A065012003E0012002B0B0BD7A
:100D000000208A68636D02F0040203F01003D21819
:100D1000626D79D122F48172023262658A68D207EB
:100D200020D140F2083C4FF600534FF60062C5F266
:100D3000040CCFF6FF73CFF6FF725CF803E05CF8AB
:100D400002206FF0FF035CF8033042EA0E021A4300
:100D5000D20707D16268DCF8003023F47C131A4311
:100D6000CCF80020627E636B43EA4232D4E902C3CE
:100D70001A4394F8203042EA0C02012B42EA034263
:100D800007D1D4F824C00023CFF6FE7303EB4C4305
:100D90001A43A36A33B1D4F82CC003F4707343EA46
:100DA0000C031A43D1F80CC04CF20703CFF6F073D2
:100DB00003EA0C031A43CA608A6812072BD494F81A
:100DC0003030227E5B0094F838C043EA823ECB6824
:100DD00044F2020223EA020242EA0E02CA600A69EF
:100DE000BCF1010F14D140F2FD7322EA030CD4E9E7
:100DF0000F32D4E911E543EA0C031A4342EA0E022A
:100E00002A4342F0010205E042F01001012010E007
:100E100022F001020A6122690B6B012A23F00F0202
:100E200002D1E369013B1A430A63616D012262F357
:100E30000101616502B0B0BD10B5A8B00446002044
:100E40002790CDE92500CDE9230001A88821FFF7EF
:100E500017FB20680021C5F20401884201D028B0A8
:100E600010BD4FF4804001904FF080501F90012042
:100E7000CDE9020010200490072005904FF080700B
:100E80000224089001A8CDE9064400F045FB0028A3
:100E900018BFFFF7EBFC41F24C00C4F202000168FE
:100EA00041F400510160016801F400510091009982
:100EB000016841F004010160006823A900F004000A
:100EC000009000980B2024900020259040F6000010
:100ED000C4F60000239400F03BF928B010BD0000D8
:100EE0002DE9F04F81B040F208390446C5F20409FB
:100EF000D9F80000D4F814800D46B8F1080F00F0BE
:100F00001F0A01D108270EE0BAF1090F65D80120A8
:100F100000FA0AF040F2212108425ED02068C06841
:100F2000C0075FD1042700F0F7F921680A683A4248
:100F30003CD0606D40F400706065C86810F4406F8C
:100F40000FD1607E68B9086800070AD5606D20F48B
:100F500080706065606DC00403D4606D40F0010076
:100F60006065A9F502708142084608BFA9F5427084
:100F70000246BAF1090F08BF0A46BAF1050F08BFC9
:100F80000A46BAF1000F08BF0A46884208BF024667
:100F9000D068B8F1080F01D1082002E0400401D464
:100FA0000C200860002001B000F02FB883466E1CB2
:100FB00008E000BF2068006838421BD0216808683C
:100FC0003842B6D1002EF9D000F0A6F9002DF1D0AC
:100FD000A0EB0B00A842F1D9ECE7D9F8000010F41F
:100FE000604F9FD0606D40F020006065012001B02F
:100FF00000F00BB8606D40F004006065002084F8DC
:101000005000032001B000F000B830BCBDE8C08F34
:1010100070B50025C5F204050446D5F808630068DC
:101020008068400703D494F85000012801D10220C1
:1010300070BD012084F850002046FFF7ADFB18B1C9
:10104000002184F8501070BD2168636D06F01F0206
:1010500040F60176B34303F5807605F58073994237
:1010600018BF0D466B1AB3FA83F35B09666500D1AE
:101070001AB9666D26F480166665666D4FF0000C31
:10108000F6044FF0000644BFA66D26F00606A665DE
:101090001C260E6084F850C043B9092A17D80123D2
:1010A00003FA02F240F221231A4210D0CA689201D8
:1010B00004D5626D012363F30D3262658A684FF6D1
:1010C000C073C7F6FF731A4004328A6070BD616D49
:1010D00041F480116165E968890158BF70BD616D97
:1010E000012262F30D31616570BD000010B5044648
:1010F00090F85000012804BF022010BD012084F8A0
:10110000500020460321FFF799FA48B92046FFF71F
:1011100003FB28B9616D41F2011291430131616510
:10112000002184F8501010BDB0B5044600F0F4F86A
:10113000054640F20400C2F200000078611C18BFAE
:10114000044400BF00F0E8F8401BA042FAD3B0BD51
:101150002DE9F04F82B00A68002A00F0D18041F6F4
:10116000000600F13844C4F60006072340F2004CA4
:101170004FEAB425B04208BF0623C4F2010C062D85
:1011800038BF4FEAB4234FF0000E0124002700259A
:10119000009309E00A68013532FA05F307F1020706
:1011A0000EF1040E00F0AC8004FA05F912EA090809
:1011B000F0D0D1F804A00AF00302A2F1010BBBF1B8
:1011C000010F11D8D0F808B00323CE68BB402BEA3A
:1011D0000303BE40334383604368CAF3001623EA27
:1011E0000903AE4033434360032A0BD1C36ACAF3F9
:1011F000C00623EA0903AE403343C362022A0ED07D
:1012000020E000BF0323D0F80C9003FA07F68B68A8
:1012100029EA0606BB403343C360022A12D16FF0AD
:10122000030202EA550202440EF01C060F23D2F814
:10123000209003FA06FA0B6929EA0A09B34043EA47
:1012400009031362026803234E68BB409A4306F009
:101250000303BB401A4316F4403F02609AD041F2A8
:101260006003C4F202031A684FF6084A42F0010212
:101270001A601A68CFF6FF7A02F001020192019A11
:1012800025F00302624452F80A900EF00C060F2378
:10129000009CB34029EA030304FA06F6334342F8FC
:1012A0000A30DCF808904B6849EA0806DA0258BFB1
:1012B00029EA080640F20C49CCF80860C4F201099A
:1012C000D9F800209C0242EA080658BF22EA080624
:1012D000C9F80060DCF804209E0342EA080458BF05
:1012E00022EA0804CCF80440DCF80020DB0342EAE0
:1012F000080458BF22EA0804CCF80040012449E75A
:1013000002B000F000B830BCBDE8C08F1823002A3E
:1013100008BF2823C150704740F27020C2F200007D
:101320000068704740F2040040F27021C2F20000F1
:10133000C2F2000100780A6810440860704700009B
:1013400080B5032000F08CF80F2000F009F8002889
:101350001CBF012080BD00F02DF8002080BD0000E2
:10136000B0B540F20401C2F20001097801B30446AD
:1013700040F20000C2F200004FF47A720068B2FB43
:10138000F1F1B0FBF1F000F0E7FF0F2C4FF0010599
:101390000CD858B94FF0FF3021460022002500F04C
:1013A00033F840F20800C2F2000004602846B0BDE5
:1013B0000120B0BD82B041F25800C4F20200816841
:1013C00041F001018160816801F001010191019901
:1013D000016841F080510160006800F08050009089
:1013E000009802B070470000002848BF704700F026
:1013F0001F01012202FA01F14EF200124009CEF261
:10140000000242F82010704710B54EF60C5CCEF288
:10141000000CDCF80030C3F3022E8EF00704042C1D
:1014200028BF0424BEF103034FF0FF3E0EFA04F47C
:1014300038BF0023A14399400EFA03F39A431143A6
:1014400000F1604200F00F03090102F56442043B21
:101450006344002848BF03F10C02117010BD000066
:101460004EF60C51CEF200010A684FF6FF031A4007
:1014700060F30A2242F0806040F0FD70086070471F
:1014800047F2000CC4F2000CDCF80020B0F5007F3D
:1014900002F4C0602BD1B0F5007F26D0DCF800004C
:1014A000012262F34A20CCF8000040F20000C2F2B0
:1014B00000000068322358434DF68363C4F21B33A7
:1014C000A0FB030302EB9340002200BFDCF81410E2
:1014D000013842F10003490501D5002BF6D1DCF8B3
:1014E0001400400544BF0320704700207047B0F54A
:1014F000806FFAD0DCF80000022161F34A20CCF8BA
:10150000000000207047000047F20000C4F2000015
:10151000006800F4C06070472DE9F04782B00446CF
:10152000407841F288070007C4F2020702D44FF066
:10153000000A35E0606E4FEAB05003280ED84FF035
:10154000000ADFE800F002111C17201D002101F045
:10155000C1FD8246BAF1000F0FD11BE04FF0010A26
:10156000BAF1000F09D115E004F12000002101F0CB
:1015700079FE8246BAF1000F0CD0D04612E057F83F
:101580007C0C4FF0000A40F4803047F87C0CBAF134
:10159000000FF2D13868616E20F4400008433860D3
:1015A0004FF000086078C00631D5A06E4FEA306079
:1015B00003280CD8DFE800F002111C17201D0021C1
:1015C00001F088FD8246BAF1000F0FD119E04FF00B
:1015D000010ABAF1000F09D113E004F12000002143
:1015E00001F040FE8246BAF1000F0AD0D0460EE06C
:1015F00057F87C0C40F4803047F87C0CBAF1000FAF
:10160000F4D13868A16E20F0407008433860A078AB
:10161000800701D4C24665E057F8300C10F08059BD
:101620000BD157F8300C40F0805047F8300C57F889
:10163000300C00F080500190019847F20005C4F290
:101640000005286840F480702860FFF765FE0646B4
:101650002868C00506D4FFF75FFE801B0328F7D378
:101660004FF0030ABAF1000F33D1B86810F440709C
:1016700012D0D4F8841088420BD0B868B96820F42E
:10168000407041F48031B960B96821F48031B960AB
:10169000B860C00703D111E00020C0070ED0FFF7EB
:1016A0003BFE064641F28935B868800706D4FFF74D
:1016B00033FE801BA842F7D34FF0030ABAF1000FA4
:1016C00007D1B868D4F8841020F440700843C246AB
:1016D000B860B9F1000F05D157F8300C20F08050F8
:1016E00047F8300C2068C10716D181071CD4410788
:1016F00022D4010728D4C1062ED4810634D4810512
:101700003AD4410540D4410646D401064CD4C10523
:1017100052D4800458D471E03968A26B21F00301DF
:10172000114339608107E2D53968E26B21F00C0181
:10173000114339604107DCD53968226C21F0300152
:10174000114339600107D6D53968626C21F0C001B8
:1017500011433960C106D0D53968A26C21F44071BB
:10176000114339608106CAD53968E26C21F44061C1
:10177000114339608105C4D53968E26D21F44021F7
:10178000114339604105BED53968226E21F44011FC
:10179000114339604106B8D53968226D21F44051B2
:1017A000114339600106B2D53968626D21F44041B8
:1017B00011433960C105ACD53968A26D21F44031BF
:1017C00011433960800419D53968E06E21F0406119
:1017D0000143B0F1806F396009D0B0F1006F0DD1D5
:1017E00057F87C0C40F4801047F87C0C06E0201D74
:1017F000012101F06FFC002818BF8246A078000785
:1018000019D53968206F21F040610143B0F1806F34
:10181000396009D0B0F1006F0DD157F87C0C40F45D
:10182000801047F87C0C06E0201D012101F052FCDD
:10183000002818BF8246A078400719D53968606F24
:1018400021F040610143B0F1806F396009D0B0F1FF
:10185000006F0DD157F87C0C40F4801047F87C0CD9
:1018600006E0201D012101F035FC002818BF82464A
:101870006078400618D53968A06F21F040510143C7
:10188000B0F1005F396007D0B0F1805F0CD1201D4E
:10189000022101F01FFC04E004F12000022101F00C
:1018A000E1FC002818BF82462068010405D539688C
:1018B000E26F21F0804111433960C00306D53868DA
:1018C000D4F8801020F0004008433860504602B041
:1018D000BDE8F0872DE9F04381B0002800F0888052
:1018E00042F20008C4F202080446D8F800000D468F
:1018F00000F0070088420CD2D8F8000020F0070062
:101900002843C8F80000D8F8000000F00700A842FB
:101910006ED1206841F208098107C4F202090DD591
:10192000A168D9F8002002F0F002914206D9D9F856
:10193000002022F0F0021143C9F80010C0074DD179
:10194000206881070DD5A168D9F8002002F0F002C7
:10195000914206D2D9F8002022F0F0021143C9F8D2
:101960000010D8F8001001F00701A9420CD9D8F8EE
:10197000001021F007012943C8F80010D8F8001022
:1019800001F00701A94233D1410707D5D9F800106A
:10199000E26821F4E0611143C9F80010000708D59E
:1019A000D9F80000216920F4605040EAC100C9F86C
:1019B0000000D9F80000D9F8041010F00C0005D090
:1019C0000C2837D101F00301012933D159F8081C43
:1019D000090711D4D9F88C10090A10E0606898B38F
:1019E000022853D0032856D159F8081C89012FD456
:1019F000012001B0BDE8F08359F8081C090943F63D
:101A0000804201F00F01C0F6000252F821100028B8
:101A10000A4618BF00220C285BD1D9F8040000F058
:101A2000030002283CD0032804BF41F20021C0F289
:101A30007A0139E0042868D008286CD141F20022EC
:101A40000021C0F27A02E6E759F8081C8907CFD5D1
:101A5000D9F8001021F003010843C9F80000FFF78E
:101A60005BFC064641F28837D9F80000616800F057
:101A70000C00B0EB810F3FF463AFFFF74DFC801B10
:101A8000B842F1D9032001B0BDE8F08359F8081C31
:101A90008903ADD5DCE759F8081C4905A8D5D7E777
:101AA00042F20041C0F2F401D9F80400D9F8042050
:101AB000C0F30210C2F306225143D9F804200130CA
:101AC000B1FBF0F0C2F34161022202EB4101B0FB35
:101AD000F1F2D9F8000043F66841C0F30310C0F6F4
:101AE0000001085C00F01F0022FA00F140F208003B
:101AF000C2F2000040F200020068C2F2000211606F
:101B000001B0BDE8F043FFF72BBC42F200420021D8
:101B1000C0F2F4027FE7002200217CE740F20000DF
:101B200041F20801C2F20000C4F202010068096833
:101B300043F67842C1F30221C0F60002515C01F085
:101B40001F01C8407047000040F2000041F2080148
:101B5000C2F20000C4F202010068096843F678424C
:101B6000C1F3C221C0F60002515C01F01F01C84060
:101B70007047000041F20C01C4F2020151F8040C5C
:101B800010F00C02086805D00C2A40D100F00300C8
:101B900001283CD151F80C0C000703D4D1F888007F
:101BA000000A02E051F80C0C000943F6804300F0F3
:101BB0000F00C0F6000353F82030002A184618BF63
:101BC00000200C2A18BF7047086800F003000228A4
:101BD00006D0032804BF41F20023C0F27A0303E0D9
:101BE00042F20043C0F2F40308680A68C0F302102E
:101BF000C2F30622096801305A43B2FBF0F0C1F388
:101C00004161022202EB4101B0FBF1F07047042A6E
:101C100007D0082A0BD141F200200023C0F27A003D
:101C2000CFE742F200400023C0F2F400C9E70020F1
:101C30000023C6E72DE9F04383B0002800F0E382DB
:101C400041F200060446C4F20206B068F168227848
:101C500000F00C09D00601F003081DD42078C0075D
:101C600000F0EF80B9F1080F44D0B9F10C0F08BFB4
:101C7000B8F1030F3ED06568B5F5A02F00F0BD8028
:101C8000B5F5803F00F0BD80306820F480303060D2
:101C9000306820F48020B7E0B9F1000F1BD0B9F113
:101CA0000C0F08BFB8F1010F15D0A16930680029E9
:101CB00071D040F001003060FFF72EFB054600BFF9
:101CC000306880077AD4FFF727FB401B02284FF0CB
:101CD0000300F5D9F2E23068800703D5A069002837
:101CE00000F09182256A306800070CD4D6F8940081
:101CF000000909E03068800340F1A3806068002893
:101D000040F09F807FE2306800F0F000854219D9F2
:101D1000B06DC00064D4B06D40F08050B065B06D5F
:101D200000F0805001900198FFF7EEFBB16D21F0BB
:101D30008051B165B0F5007F57D0802D40F2F4811D
:101D40000320FBE13068B9F1000F40F0080030607B
:101D5000306820F0F00040EA050030607068E1690A
:101D600020F47F4040EA0120706040F03A82B06D7C
:101D7000C00000F10382B06D40F08050B065B06DDE
:101D800000F0805002900298FFF7BEFBB16D21F089
:101D90008051B165F4E120F001003060FFF7BCFA3A
:101DA000054600BF306880077FF558AFFFF7B4FAEB
:101DB000401B02284FF00300F4D97FE2306840F066
:101DC000080030603068D4E9072120F0F0000843B3
:101DD0003060706820F47F4040EA022070603DE788
:101DE000FFF792FBB0F5007FA7D1812DC0F0A58150
:101DF0000120A02D88BF0220A0E1306840F480209F
:101E00003060306840F480303060FFF785FA002D94
:101E1000054613D03068800313D4FFF77DFA401BCA
:101E200064284FF00300F5D948E200BFFFF774FAC9
:101E3000401B64284FF0030000F2408230688003AA
:101E4000F4D4207880072CD5B9F1040F1BD0B9F158
:101E50000C0F08BFB8F1020F15D0E16830680029F7
:101E600000F04F8140F480703060FFF755FA05466E
:101E7000306840050ED4FFF74FFA401B02284FF0A0
:101E80000300F5D91AE23068400503D5E068002860
:101E900000F0B9817068216920F0F85040EA0160D3
:101EA0007060207800075ED42078400775D4A06A5F
:101EB000002800F07A81022840F0B980F068E16AD9
:101EC00000F003028A4240F0C980226B6FF00F03DA
:101ED00000F0700103EB0212914240F0BF80616B91
:101EE00000F4FE42B2EB012F40F0B880A16B00F489
:101EF0000032073918BF01218A4240F0AF80E26BFF
:101F00000023CFF6E07303EA025200F4C001A2F509
:101F10000012914240F0A280216C4FF07E4202EA12
:101F2000016100F0C06001F17E41884240F096807E
:101F30003068800100F13981306840F08070306095
:101F4000F06840F08070F060FFF7E6F90446306812
:101F5000800100F12A81FFF7DFF9001B02284FF012
:101F60000300F4D9AAE16169D6F8940000294AD0A7
:101F700040F00100C6F89400FFF7CEF9054600BF17
:101F8000D6F8940080078FD4FFF7C6F9401B0228CB
:101F9000F6D9032003B0BDE8F083B06D10F080588F
:101FA00008D1B06D40F08050B065B06D00F0805049
:101FB0000090009847F20007C4F200073868C00597
:101FC00011D4386840F480703860FFF7A5F90546F1
:101FD0003868C00507D4FFF79FF9401B02284FF06F
:101FE0000300F5D96AE1A568052D56D0012D5AD018
:101FF000D6F8900020F00100C6F89000D6F89000C6
:1020000020F0040053E020F00100C6F89400FFF730
:1020100083F90546D6F8940080077FF545AFFFF7B2
:102020007BF9401B02284FF00300F3D946E1B9F1D8
:102030000C0F00F0E880306820F080703060FFF70F
:102040006BF904463068800140F1A880FFF764F91D
:10205000001B02284FF00300F4D92FE1B9F10C0F57
:1020600000F0D180306840015CBF30685FEAC0009A
:1020700000F1C980306820F080703060FFF74CF9C3
:1020800005463068800140F12581FFF745F9401B86
:1020900002284FF00300F4D910E1D6F8900040F088
:1020A0000400C6F89000D6F8900040F00100C6F891
:1020B0009000FFF731F9002D054641F2883713D023
:1020C000D6F89000800713D4FFF726F9401BB842DA
:1020D0004FF00300F4D9F1E0FFF71EF9401BB842BE
:1020E0004FF0030000F2EA80D6F890008007F3D4A6
:1020F000B8F1000F7FF4DBAEB06D20F08050B0651A
:10210000D5E620F480703060FFF706F9054600BF81
:10211000306840057FF5C5AEFFF7FEF8401B02288A
:102120004FF00300F4D9C9E0A5F17000B0FA80F0D7
:102130004009802D08BF022000E0002042F200018B
:10214000C4F202010A6822F0070202440A60096828
:1021500001F00701814256D1306840F0080030603C
:102160003068D4E9072120F0F0000843306070683F
:1021700020F47F4040EA0220706032E0FFF7C4F9AB
:10218000B0F5007F06D1812D13D30120A02D88BF8B
:10219000022018E0802D0ED9032014E0F0684FF6DD
:1021A000FC71CFF6EE610840F060002003B0BDE89E
:1021B000F083002007E0A5F17000B0FA80F040093C
:1021C000802D08BF022042F20001C4F202010A6819
:1021D00022F0070202440A60096801F00701814207
:1021E00011D1B068F16810F00C0005D00C282AD18C
:1021F00001F00301012926D13168090707D4D6F877
:102200009410090A05E0012003B0BDE8F0833168AD
:10221000090943F6804201F00F01C0F6000252F8AE
:10222000211000280A4618BF00220C282BD1F06884
:1022300000F00300022810D0032804BF41F200215F
:10224000C0F27A010DE004283BD008283FD141F2CA
:1022500000220021C0F27A02E7E742F20041C0F218
:10226000F401F068F268C0F30210C2F30622514391
:10227000F2680130B1FBF0F0C2F34161022202EBDF
:102280004101B0FBF1F2B06843F66841C0F30310BE
:10229000C0F60001085C00F01F0022FA00F140F2D5
:1022A0000800C2F2000040F200020068C2F2000220
:1022B0001160FFF755F800283FF4D0AC03B0BDE83B
:1022C000F08342F200420021C0F2F402ADE70022A6
:1022D0000021AAE7F06848F28C01CFF69D1104F1C5
:1022E0002C0700EA010C8ECFD4E90F546FF00F00D9
:1022F00040F2000E00EB0210CFF6E07E41EA0C0146
:102300000EEA05554FF07E420843A5F5001502EA96
:10231000046240EA032002F17E420EF5F0142843E5
:1023200004EA473710433843F060306840F080706B
:102330003060F06840F08070F060FEF7EDFF04461A
:10234000306880013FF531AFFEF7E6FF001B022841
:102350004FF00300F4D9B1E7411E0020B0EB116F3C
:102360001CBF012070474EF21002CEF200025160F5
:102370004EF62351CEF20001F0230B70072190603E
:102380001160704770470000704700007047000000
:1023900010B590F83C20012A4FF0020257D00123DB
:1023A00080F83C3080F83D20026843F2004C5368CE
:1023B000D2F808E0C4F2010C624505D042F60044B0
:1023C000C4F20104A24203D14C6823F470032343F6
:1023D0000C6823F07003234340F6FF34C4F200047A
:1023E000A242536010DD43F2FF33C4F201039A426C
:1023F0001ADC40F60043C4F200039A421CD042F6B5
:102400000043C4F201030CE0B2F1804F14D040F25B
:102410000043C4F200039A420ED040F60003C4F217
:1024200000039A4208D00CE044F20003C4F2010316
:102430009A4201D0624504D189682EF08003194385
:1024400091600121002280F83D1080F83C20104668
:1024500010BD0000002804BF0120704710B50446DD
:1024600090F83D0028B9002084F83C00204600F098
:1024700023F8022084F83D002068211D01F030F887
:10248000012084F8480084F83E0084F83F0084F876
:10249000400084F8410084F8420084F8430084F846
:1024A000440084F8450084F8460084F8470084F826
:1024B0003D00002010BD000080B582B00068B0F182
:1024C000804F1CBF02B080BD41F25800C4F2020030
:1024D0000168002241F0010101600068002100F064
:1024E0000100019001981C20FEF78EFF1C2002B015
:1024F000BDE88040FEF778BF90F83D1001291CBF71
:1025000001207047022180F83D10016840F6FF323B
:10251000C868C4F20002914240F00100C8600EDDBC
:1025200043F2FF30C4F20100814218DC40F6004063
:10253000C4F2000081421ED042F6004017E0B1F123
:10254000804F18D040F20040C4F20000814212D007
:1025500040F60000C4F2000081420CD018E044F2C2
:102560000000C4F20100814205D043F20040C4F2F1
:10257000010081420CD188680722C0F201020240AA
:10258000062A4FF0000008D0B2F5803F08BF704720
:10259000086840F0010008600020704780B590F89E
:1025A0003C20012A4FF0020200F0C280012380F893
:1025B0003C3080F83D20D0F800C08822DCF808309C
:1025C000CFF6FE721A40CCF808200B684F2B28DC9F
:1025D0001F2B43DD202B44D0302B42D0402B40F02A
:1025E000A980D1F804E0C968DCF82030DCF82020AC
:1025F00022F00102CCF82020DCF8182022F0F002B2
:1026000042EA011123F00A0242EA0E02CCF8181045
:10261000CCF82020DCF8081041F0470121F030010F
:102620007DE06F2B25DDB3F5005F46D0B3F5805F0D
:1026300077D0702B7ED1D1E901E3C968DCF808209E
:1026400043EA0E0322F47F4243EA01211143CCF80E
:102650000810DCF8081041F0770160E00BB1102B96
:1026600068D1DCF8081021F07001194341F007012E
:1026700055E0502B34D0602B5CD1D1F804E0C96810
:10268000DCF82030DCF8202022F01002CCF82020EA
:10269000DCF8182022F4704242EA013123F0A00253
:1026A00042EA0E12CCF81810CCF82020DCF8081002
:1026B00041F0670121F0100131E0D1E901E3C9687F
:1026C000DCF8082043EA0E0322F47F4243EA0121AA
:1026D0001143CCF80810DCF8081041F480411EE0EA
:1026E000D1F804E0C968DCF82030DCF8202022F0C2
:1026F0000102CCF82020DCF8182022F0F00242EA97
:10270000011123F00A0242EA0E02CCF81810CCF8AC
:102710002020DCF8081041F0570121F02001CCF80E
:1027200008100022012180F83D10002180F83C10A3
:10273000104680BD0122F5E7002804BF0120704744
:102740002DE9F047044690F83D000D4628B90020D9
:1027500084F83C00204600F04BF8022084F83D004D
:1027600020684BF6F8728168CFF6FE7211408160E6
:10277000211D00F0B5FE20684FF6FF788168826960
:10278000D0F820C0D5E9003ED5E9026A43EA010944
:10279000AB6922EA080246EA03234FF6FC46B3433C
:1027A000D5E9076742EA0A0229691A4342EA062282
:1027B00042EA01112CF0AA026B6942EA0E0241EAD8
:1027C000073142EA0312C0F80890816102620120D9
:1027D00084F8480084F83E0084F83F0084F8440000
:1027E00084F8450084F83D000020BDE8F087000033
:1027F00080B586B0006840F20041C4F20001884212
:102800004FF000010591CDE90311CDE901111FD071
:1028100042F60041C4F2010188423DD141F24C0030
:10282000C4F20200416941F400614161416901F46F
:10283000006100910099016841F0010101600068A8
:102840004FF4407100F0010000900098012017E063
:1028500041F24C00C4F20200C16841F00201C160C3
:10286000C16801F0020100910099016841F0010185
:1028700001600068C02100F0010000900098022073
:102880000191022102910021CDE90311059001A9D6
:102890004FF09040FEF75CFC06B080BD80B590F82C
:1028A0003E2090F83F3090F844E090F845C004296D
:1028B00009D099B9012A4FF0010208BFBEF1010FFA
:1028C0002BD0104680BD012B4FF0010208BFBCF198
:1028D000010FF6D1022280F83F2012E0012A4FF0CA
:1028E000010208BF012BECD1BEF1010FE9D1BCF10F
:1028F000010FE6D1022280F83E2080F83F2080F8C8
:10290000442080F8452004290ED081B901684FF099
:10291000010C20316FF0010317E0022280F83E2005
:1029200080F844200429F0D10168203109E00168D1
:1029300051F8202F22F001020A600A6842F00102D9
:102940000A604FF0100C6FF010030A681A400A601A
:102950000A6842EA0C020A6000680022016841F03D
:1029600001010160104680BD70470000F0B581B0E4
:1029700004460068C5680669B10716D515F002015E
:1029800013D06FF002010161012121778069800776
:1029900003D02046FFF7E8FF05E0204600F094F85A
:1029A000204600F093F800202077700718D515F026
:1029B000040015D020686FF0040101610221217725
:1029C000806910F4407F03D02046FFF7CDFF05E07B
:1029D000204600F079F8204600F078F800202077B3
:1029E000300717D515F0080014D020686FF00801E3
:1029F000016104212177C069800703D02046FFF7D9
:102A0000B3FF05E0204600F05FF8204600F05EF8D6
:102A100000202077F00618D515F0100015D020689A
:102A20006FF01001016108212177C06910F4407F27
:102A300003D02046FFF798FF05E0204600F044F859
:102A4000204600F043F800202077F00718BF15F06B
:102A5000010006D020686FF001010161204600F0FE
:102A600037F8300605F0800707D537B120686FF0DA
:102A7000800101612046FFF787FCF00507D537B1DB
:102A800020686FF4807101612046FFF77BFC7006BF
:102A900009D515F0400006D020686FF040010161B3
:102AA000204600F065F8B0060CD515F0200009D0DE
:102AB00021686FF0200220460A6101B0BDE8F040B5
:102AC000FFF764BC01B0F0BD704700007047000024
:102AD000B0B586B04FF0904020210122FEF716FCE1
:102AE00040F27020C2F20000036840F2642040F21D
:102AF0006824C2F20000C2F20004D0F800E02068AE
:102B000040F2602140F27822C2F20001C2F20002DB
:102B100040F2742C451C09681268C2F2000C256052
:102B200040F27004DCF800C0C2F20004CDE900E11C
:102B30000292049009A220462021CDF80CC0FDF796
:102B40000FFC40F2D810C2F200002146202264237C
:102B500006B0BDE8B04000F083B800BF25642C2566
:102B6000642C25642C25642C25642C2564090A001A
:102B70007047000010B5C8B10446C06F28B90020E6
:102B800084F87800204600F025F82420E0672068CB
:102B9000616A026822F00102026011B1204600F071
:102BA00031FD204600F000FE012801D1012010BDBA
:102BB0002168486820F490404860886820F02A0026
:102BC0008860086840F0010220460A60BDE81040B5
:102BD00000F08CBDB0B5A8B00446002501A888213E
:102BE0002795CDE92555CDE92355FDF749FC20680A
:102BF00044F20041C4F20001884201D028B0B0BDC7
:102C0000022401A801941095FEF786FC002818BF45
:102C1000FDF72CFE41F24C00C4F20200C16841F401
:102C20000031C160C16801F4003100910099016870
:102C300041F001010160006823A900F0010000904B
:102C400000980C20CDE92304002025900320269035
:102C5000072027904FF09040FEF77AFA28B0B0BDD9
:102C60002DE9F04182B00446C06F20281DD10D46E9
:102C700000294FF0010049D01746002A46D0002015
:102C8000C4F8840021209846E067FEF745FBA4F8CD
:102C90005070A4F85270A1680746B1F5805F01D169
:102CA000206930B12E46002511E0022002B0BDE8B7
:102CB000F08100260BE000BF35F8021B00266FF301
:102CC0005F210185B4F852000138A4F85200B4F82D
:102CD000520070B12046802100223B46CDF8008092
:102CE00000F0A4FEA8B92068002EE5D016F8011B5C
:102CF000E7E72046402100223B46CDF8008000F067
:102D000095FE2021E167002818BF032002B0BDE82E
:102D1000F0812020E067032002B0BDE8F0810000D0
:102D2000FEE7000010B58AB040F2900000210024B8
:102D3000C2F20000C5F20401C0E900144FF4807132
:102D40000422018301210994CDE90744CDE905441A
:102D5000CDE90344CDE90144C0E90244C0E904429D
:102D6000C16180F82040C0E90A4480F830404463E3
:102D700080F83840FDF774FF002818BFFDF776FD96
:102D800040F29000C2F2000007A90794FDF774FD1D
:102D9000002818BFFDF76AFD0420C0F6600001900E
:102DA00006207F2102900020049104210390CDE9A8
:102DB000051040F29000C2F2000001A9FDF7C4FD29
:102DC000002818BFFDF752FD0AB010BDB0B586B09F
:102DD00000200590CDE90300CDE9010041F24C004F
:102DE000C4F202000168012241F080010160016823
:102DF000032401F08001009100990168012541F050
:102E000004010160016801F004010091009901686A
:102E100041F0010101600068032100F00100009011
:102E200000984FF09040FEF771FA4FF0904020214B
:102E30000022FEF76BFA2320CDE9010501A94FF02E
:102E40009040CDE90354FEF783F906B0B0BD000011
:102E5000B0B58CB003AC20462421FDF711FB40F245
:102E6000F40042F600410025C2F20000C4F2010164
:102E7000C0E900150321CDE9031501214FF6FF72CA
:102E8000CDE90515CDE9091521460295CDE9005595
:102E9000C0E90252C0E904558561CDE907550B959B
:102EA000FFF74AFC002818BFFDF7E0FC40F2F400F1
:102EB000C2F200006946CDE900550295FFF768FAB5
:102EC000002818BFFDF7D2FC40F2F404C2F200045F
:102ED00020460021FFF7E2FC20460421FFF7DEFC3C
:102EE0000CB0B0BD10B588B040F240100021C2F265
:102EF000000040F2E7340691CDE90411CDE902115A
:102F0000CDE900114FF0804240F28F13C0E9021466
:102F100001618021C0E900238161FFF79BFA00284D
:102F200018BFFDF7A3FC4FF48050039040F240100F
:102F3000C2F2000003A9FFF731FB002818BFFDF71C
:102F400095FC40F240140020C2F200040090029070
:102F500069462046FFF71CFA002818BFFDF786FCDB
:102F60002068B0F1804F01D008B010BD41F2580088
:102F7000C4F202000168002241F001010160006812
:102F8000002100F00100079007981C20FEF73CFA92
:102F90001C20FEF729FA08B010BD0000B0B58CB0B7
:102FA00003AC20462421FDF76BFA40F28C1040F26E
:102FB00000410025C2F20000C4F20001C0E9001582
:102FC0000321CDE9031501214FF6FF72CDE9051567
:102FD000CDE9091521460295CDE90055C0E9025217
:102FE00005618561CDE907550B95FFF7A5FB002825
:102FF00018BFFDF73BFC40F28C10C2F2000069469E
:1030000000950295FFF7C4F9002818BFFDF72EFCC4
:1030100040F28C14C2F2000420460021FFF73EFC6F
:1030200020460421FFF73AFC0CB0B0BD80B540F259
:10303000D81044F20041C2F20000C4F200010023A3
:103040004FF00C0C4FF4E13280E80E00C0E903337E
:10305000C0E905C3C0E907334362FFF78BFD0028D1
:1030600008BF80BDBDE88040FDF700BCFEE7000062
:10307000FEE700007047000080B5401A10F1060F0F
:1030800009DC4FF0904002210122FEF73FF94FF09A
:103090009040012118E006280DDB4FF090400221FE
:1030A0000022FEF733F94FF0904001210122BDE8E4
:1030B0008040FEF72BB94FF0904001210022FEF72F
:1030C00025F94FF0904002210022BDE88040FEF734
:1030D0001DB900002DE9F04141F20004C4F20204E0
:1030E000E2680E469107804613D0E168D8F80000E8
:1030F00001F0030181420AD148B1E068D8F8041018
:10310000C0F302100130884201D100253AE00125C8
:1031100038E0D8F8000003280DD0022819D0012883
:1031200021D12168012301F00202C1F3400183EAA9
:103130005205D9B926E0216889034FF0010149D42D
:10314000226802F4802381EA9345C2F3804169B981
:1031500018E02168012301F48062C1F3802183EA31
:10316000922519B90EE00125002159B1E168D8F87E
:1031700004206FF00F0321F0730103EB02121143DF
:103180000843E06015B12846BDE8F081206820F0D2
:1031900080602060FEF7C0F8074600BF206800018D
:1031A00005D5FEF7B9F8C01B0328F7D30325002D7A
:1031B000E9D1012E12D02EBB206948F2FF01CFF6D3
:1031C000FD710840D8E902120023CFF6FE7303EA2E
:1031D000423227E000250029C8D1D3E748F2FF0199
:1031E0002069CFF6FF11D8F81020002301F1B46157
:1031F000CFF6E0730840D8F8081003EA0252A2F5AF
:1032000000120FE0206948F2FF01D8F81420CFF631
:10321000FF114FF07E430840D8F8081003EA02621D
:1032200002F17E4240EA012010432061206840F014
:1032300080602060FEF770F8064600BF206800013D
:1032400005D4FEF769F8801B0328F7D30325002D6A
:1032500099D1D8F818002169084320612846BDE8B3
:10326000F08100002DE9F04141F20004C4F20204B3
:10327000E2680E469107804613D0E168D8F8000056
:1032800001F0030181420AD148B1E068D8F8041086
:10329000C0F302100130884201D100253AE0012537
:1032A00038E0D8F80000032817D002280BD00128F6
:1032B00021D12168012301F00202C1F3400183EA18
:1032C0005205D9B926E02168012301F48062C1F3D7
:1032D000802183EA922589B91CE0216889034FF097
:1032E00001016CD4226802F4802381EA9345C2F381
:1032F000804119B90EE00125002159B1E168D8F8E3
:1033000004206FF00F0321F0730103EB021211434D
:103310000843E06015B12846BDE8F081206820F040
:1033200080502060FDF7F8FF074600BF206880004E
:1033300005D5FDF7F1FFC01B0328F7D30325002DAA
:10334000E9D16169D8F808004FEA00206EB148F26F
:10335000FF02CFF6FF121140D8F810204FF07E4345
:1033600003EA026202F17E420BE048F2FF02CFF66E
:10337000FD721140D8F80C200023CFF6FE7303EA4B
:103380004232084310436061206840F08050206062
:10339000FDF7C2FF064600BF2068800005D4FDF798
:1033A000BBFF801B0328F7D30325002DB3D1D8F82A
:1033B00014006169084360612846BDE8F08100257A
:1033C00000299BD1A6E70000416A406A42F21073CF
:1033D0004FF6FF72994288BF801A7047B0B540F22D
:1033E0009005C2F2000504462846FDF711FE284666
:1033F0000121FDF775FD2846FDF72EFC0146284604
:103400002160BDE8B040FDF771BE00004FF0904074
:1034100001210022FDF77ABF4FF0904002210022E7
:10342000FDF774BF704700004FF090400221012269
:10343000FDF76CBFFDF776BF10B596B005A8442127
:10344000FDF71EF800244FF400700494CDE9024407
:10345000CDE90044FEF714F818B1EFF3108072B60E
:10346000FEE710206021059001200D910221CDE999
:103470000B04CDE90F101190142012900720CDE914
:10348000130105A81591FEF7D5FB20B1EFF31080CD
:1034900072B600BFFEE70F200090032001900020CD
:1034A000CDE90200049068460221FEF713FA20B12C
:1034B000EFF3108072B600BFFEE716B010BD00003B
:1034C0004EF68850CEF20000016841F470010160B0
:1034D0007047000040F24010C2F20000FFF746BA09
:1034E00080B540F6FF330268C4F2000398420FDC57
:1034F000B0F1804F1ED040F20043C4F20003984266
:1035000018D040F60003C4F20003984212D015E030
:1035100040F60043C4F2000398420BD043F200434C
:10352000C4F20103984205D042F60043C4F20103FD
:10353000984203D14B6822F070021A4342F6FF33DF
:10354000C4F20103984214DD43F6FF73C4F2010391
:1035500098421ADD44F20003C4F2010398422DD0D0
:1035600044F60003C4F20103984227D044F200431A
:1035700013E040F2FF73C4F20003984212DCB0F192
:10358000804F1BD040F2004314E042F60043C4F2E7
:103590000103984212D043F20043C4F2010398425F
:1035A0000CD00FE040F60003C4F20003984205D0AF
:1035B00040F60043C4F20003984203D1CB6822F4E2
:1035C00040721A434B6922F0800E8A6843EA0E0368
:1035D000D1F800C00360C262A0F18042A2F5963229
:1035E0004FEAB222072AC0F828C007D8012303FAFD
:1035F00002F212F0E50F1CBF09690163012141616C
:1036000080BD000080B5416A0A070CD4CA0715D1F5
:103610008A071ED44A0727D4CA0630D48A0639D46A
:103620004A0657D541E00268D0F834C0536823F405
:10363000004343EA0C035360CA07E9D00268D0F89C
:1036400028C0536823F4003343EA0C0353608A070D
:10365000E0D50268D0F82CC0536823F4803343EAE5
:103660000C0353604A07D7D50268D0F830C05368BE
:1036700023F4802343EA0C035360CA06CED50268C4
:10368000D0F838C0936823F4805343EA0C03936066
:103690008A06C5D50268D0F83CC0936823F400536D
:1036A00043EA0C0393604A0614D50268D0F840C080
:1036B0005368BCF5801F23F4801343EA0C03536066
:1036C00008D1D2F804C0D0F844E02CF4C00343EA97
:1036D0000E035360090658BF80BD0168806C4A68BC
:1036E00022F400221043486080BD0000B0B582B0D3
:1036F00004460020C4F88400FDF70EFE216805464C
:10370000096809071AD56FF07E4C20464FF4001166
:1037100000222B46CDF800C000F088F970B100BF40
:10372000206850E8000F216820F0800041E8000286
:10373000002AF5D12020E06703202FE020680068F0
:10374000400724D56FF07E4C20464FF480010022C4
:103750002B46CDF800C000F069F9C0B1206850E8F0
:10376000000F216820F4907041E80002002AF5D192
:10377000206850E8020F216820F0010041E80202B1
:10378000002AF5D12020C4F88000032006E0202084
:10379000E067C4F88000002020666066002184F89D
:1037A000781002B0B0BD0000B0B5044604F10805C1
:1037B0002ECD0068194341EA0503D4F81CC0056802
:1037C00046F6F311CEF6FF712940194341EA0C0188
:1037D0000160416821F440511143416048F2000208
:1037E000A369C4F2000290421CBF216A0B438168A6
:1037F00021F430611943816044F6FF71C4F2000185
:1038000088424FF0100318DC44F20041C4F200017A
:10381000884227D044F60001C4F20001884228D033
:1038200044F60041C4F2000188423ED141F28801D1
:10383000C4F2020109688B092FE045F20001C4F2CD
:10384000000188421CD0904221D043F60001C4F20E
:103850000101884229D141F28801C4F202010B68BA
:103860006EA51EE041F28801C4F2020109688B08CE
:1038700013E041F28801C4F2020109680B090CE06F
:1038800041F28801C4F2020109680B0A05E041F225
:103890008801C4F2020109688B0A43F6B045C0F6FC
:1038A000000503F0030155F82130904242F2004038
:1038B000C0F2F40013D0BCF5004F1FD1082B00F26A
:1038C0005E800025DFE803F00556625B5F5B5B5BB3
:1038D00078000025FEF722F9002858D171E0082B66
:1038E0001CD80025DFE803F0051A211A1E1A1A1A3F
:1038F0003F000025FEF712F9C0B939E0082B67D860
:103900000025DFE803F005606C65696565657F008B
:103910000025FEF703F9002862D178E00020012598
:1039200020B925E00025FEF725F908B3626802EB0F
:10393000420188424FF001016AD31303984267D8CD
:10394000010E000210EB520041F100010023FCF7D0
:103950008FFC4FF60052A0F54071C0F20F02914269
:103960004AD3012154E04FF4004000250028DDD166
:1039700029464DE00025FEF7E7F840B921E0002098
:10398000012520B91DE00025FEF7F4F8C8B16168F3
:103990004A0802EB4000B0FBF1F04FF6EF72A0F1E5
:1039A0001001914206D84FF6F0710140C0F3420079
:1039B000084421E001212BE04FF4004000250028BD
:1039C000E5D1294624E00025FEF7BEF840B91EE007
:1039D0000020012520B91AE00025FEF7CBF8B0B190
:1039E00061684FF6EF7200EB5100B0FBF1F0A0F10F
:1039F0001001914204D880B22168C860294607E0CE
:103A0000012105E04FF4004000250028E8D12946B7
:103A100000220846A266E266B0BD00BF01000000B9
:103A20000400000002000000080000002DE9F0433F
:103A300081B004460068C0690840401AB0FA80F0BE
:103A40004009904251D1DDF8208015460E46994636
:103A500008F1010709E000BF2068C0693040801B01
:103A6000B0FA80F04009A84243D1002FF4D0FDF70E
:103A700053FC0146B8F1000F4FF003003AD0A1EB20
:103A80000901414536D8206801684907E4D5C16974
:103A9000090732D4C1690905DED54FF4006101621E
:103AA000206850E8000F216820F4907041E800027F
:103AB000002AF5D1206850E8020F216820F00100AB
:103AC00041E80202002AF5D1206E01280AD100BF88
:103AD000206850E8000F216820F0100041E8000243
:103AE000002AF5D1032020212EE0002001B0BDE8FE
:103AF000F083002001B0BDE8F0830821016200BF1F
:103B0000206850E8000F216820F4907041E800021E
:103B1000002AF5D1206850E8020F216820F001004A
:103B200041E80202002AF5D1206E01280AD100BF27
:103B3000206850E8000F216820F0100041E80002E2
:103B4000002AF5D1012008212022C4F8802000227B
:103B50002266A266C4F8841084F8782001B0BDE81B
:103B6000F0830000FEE7000040F20044C4F20004CD
:103B7000FDF7E6FBFFF760FCFFF728F9FFF7D2F847
:103B8000FFF754FAFFF70AFAFFF762F9FFF7AAF90D
:103B9000FFF73CFCFFF748FC40F6B830FDF7C4FAED
:103BA000FFF734FCFFF738FC40F2F400C2F20000EB
:103BB00000680021416240F28C10C2F200000068EF
:103BC000416240F24010C2F20000FEF795FC04F59D
:103BD000943540F2742440F26C2643F6352740F2C7
:103BE000642B40F27829C2F20004C2F200064FF4BE
:103BF000AA6AC4F2FC47C2F2000B4FF42F78C2F25B
:103C0000000900BF2846FFF7DFFB40F26021C2F247
:103C10000001086040F20040C4F20000FFF7D4FB4E
:103C200020603046FFF7DAFB306800FB0AF1A1FBA9
:103C3000071200FB08F0A0FB0701900ACBF8000078
:103C4000880A2168C9F80000FFF716FADAE7F1EEF2
:103C5000100A4FF6FF71C0F2C03120EA010040F0B7
:103C60004070E1EE100A7047000000000000000004
:103C70000102030406070809000000000102030412
:103C8000A0860100400D0300801A060000350C00DC
:103C900040420F0080841E0000093D0000127A009F
:103CA0000024F40000366E010048E801006CDC02DC
:103CB00000000000040000000200000008000000F6
:103CC000E03C00080000002010000000C4010008D3
:103CD000F03C00081000002070080000E00100081F
:103CE00000093D000100000010000000000000007D
:040000050800018965
:00000001FF
