:020000040800F2
:10000000E806002029020008C11D0008D91B0008CD
:10001000BD1D000831030008152200080000000083
:100020000000000000000000000000006521000842
:100030003503000800000000C51D000875210008F8
:10004000430200084302000843020008430200087C
:10005000430200084302000843020008430200086C
:10006000430200084302000843020008430200085C
:10007000430200084302000843020008430200084C
:10008000430200084302000843020008430200083C
:100090004302000843020008430200083903000835
:1000A000430200084302000843020008430200081C
:1000B000430200084302000843020008430200080C
:1000C00043020008430200084302000843020008FC
:1000D00043020008430200084302000843020008EC
:1000E00043020008430200084302000843020008DC
:1000F00043020008430200084302000843020008CC
:1001000043020008430200084302000843020008BB
:1001100043020008430200084302000843020008AB
:10012000430200084302000843020008430200089B
:10013000430200084302000843020008430200088B
:10014000430200084302000843020008430200087B
:10015000430200084302000843020008430200086B
:10016000430200084302000843020008430200085B
:100170004302000843020008430200080000000098
:10018000430200084302000800F002F800F03CF8C7
:100190000AA090E8000C82448344AAF10107DA45E2
:1001A00001D100F031F8AFF2090EBAE80F0013F0F8
:1001B000010F18BFFB1A43F001031847582700002E
:1001C00078270000103A24BF78C878C1FAD85207BF
:1001D00024BF30C830C144BF04680C6070470000C1
:1001E0000023002400250026103A28BF78C1FBD840
:1001F000520728BF30C148BF0B6070471FB502F0DF
:100200005BFB1FBD10B510BD00F058F81146FFF79D
:10021000F5FF02F001F800F076F803B4FFF7F2FF03
:1002200003BC00F07DF800000948804709480047FA
:10023000FEE7FEE7FEE7FEE7FEE7FEE7FEE7FEE796
:10024000FEE7FEE704480549054A064B70470000F3
:100250000122000889010008E8000020E8060020CB
:10026000E8020020E80200204FF0000200B513462B
:1002700094469646203922BFA0E80C50A0E80C50C6
:10028000B1F12001BFF4F7AF090728BFA0E80C5077
:1002900048BF0CC05DF804EB890028BF40F8042B70
:1002A00008BF704748BF20F8022B11F0804F18BFDD
:1002B00000F8012B7047704770477047754600F093
:1002C0002BF8AE4605006946534620F007008546E8
:1002D00018B020B5FFF7B6FFBDE820404FF000068C
:1002E0004FF000074FF000084FF0000BAC46ACE8B1
:1002F000C009ACE8C009ACE8C009ACE8C00921F00D
:1003000007018D46704710B50446AFF300802046C4
:10031000BDE81040FFF781BF004870471000002083
:1003200001491820ABBEFEE726000200704700001E
:10033000FEE700007047000080B5402000F0ACFBF5
:10034000802000F0A9FB4FF4807000F0A5FB4FF473
:100350000070BDE8804000F09FBB0000B0B50446CF
:100360004FF09040154600F081FC20704FF0904017
:10037000294600F07BFCA1786070012909D051B9B1
:100380002278012A03D1E0B101281CD020E0012904
:1003900001D1217891B1E178002908BF012808D066
:1003A000012908BF002813D1217851B101290AD0B1
:1003B0000EE0217839B1012903D009E018B10128F4
:1003C00006D1012101E04FF0FF3162681144616004
:1003D0002178E070A170B0BDEFF3108072B600BF5D
:1003E000FEE70000B0B582B090F85020012A01D19C
:1003F000022146E0012380F85030002340F2083407
:1004000001930093C5F204040368A4F54272934279
:100410002FD14FF6006ECFF6FF7E54F80E209B686A
:100420001A43520725D4D1F800C02268BCF1000F4E
:1004300022F4604328D04A6890F8305042EA4532AE
:100440001A4322604FF60052CFF6FF72A25854F8BA
:100450000E306FF0FF0565591A432A43D20727D1A2
:10046000226840F61F7389689A43114341EA0C01E0
:100470001DE0416D41F0200141650121002280F81D
:100480005020084602B0B0BD4FF600512360CFF6B1
:10049000FF71615854F80E206FF0FF03E3581143C9
:1004A0001943C90704D1216840F61F7291432160A6
:1004B0000021E3E7F0B581B00022009290F85020CF
:1004C000012A01D1022172E10123076880F850302E
:1004D000BB685B0700F18D804B68052B08D8A3F142
:1004E000020CBCF1030F9ABFB2A353F82C300623C1
:1004F000C3F301240A6807EB8404256B03F01F0390
:100500001F269E40C2F3846225EA06069A403243C3
:100510002263BA68BB6802F0040203F00803D21831
:1005200040F082800A688B68C2F3406607EB86065B
:100530007569C2F3045207249440A54303FA02F2FA
:100540002A437261D1E9043CD7F80CE0042B56D160
:100550003A6E3A6E0B68C2F3846293FAA3F6B6FA67
:1005600086F65D0308BFC3F384664FF6FF73B2429D
:10057000C0F2070303D13A6E22F000423A667A6E67
:100580007A6E0E68C2F3846296FAA6F5B5FA85F51E
:100590001E4208BFC6F38465AA4203D17A6E22F0D8
:1005A00000427A66BA6EBA6E0E68C2F3846296FA38
:1005B000A6F5B5FA85F51E4208BFC6F38465AA42C2
:1005C00003D1BA6E22F00042BA66FA6EFA6E0E6875
:1005D000C2F3846296FAA6F5B5FA85F51E4208BF05
:1005E000C6F38465AA421FD1FA6E22F00042FA6671
:1005F0001AE0416D41F0200141650121D4E006225D
:100600000E6807EB830302EA9E021D6E4FF20004A0
:100610000CFA02F2C0F2FF3406F0F84625403243ED
:100620002A4342F000421A66BA68D20745D1D1F88F
:1006300000C0CA684FF6FF74D7F8B060634602F096
:100640001805C0F207046FF3DF4324FA05F59E4353
:1006500005EA0C052E430025C4F27F05AA42C7F81F
:10066000B0602AD19CFAACF2B2FA82F2002B08BF39
:100670004FEA9C62013202F01E0302F01F020126C3
:100680000025964002EB4202CFF6206505EB0255AD
:10069000354345F000750A2B38BF46EA0255C5F3CD
:1006A000406307EB83038A685E69C5F3045507243A
:1006B000AC40A643AA4032435A6109680022C8F2FE
:1006C000080211426FD040F2083CC5F2040CDCF87D
:1006D00000300022CCF25272914203F0E07E08BF5B
:1006E00013F400021ED00022CCF68432914208BFDF
:1006F00013F0807245D00122C8F2000291424FF0FF
:10070000000108BF13F480024ED1ACF5427297424B
:100710004AD1DCF8001021F0E07141EA0E0141F409
:1007200080013EE040F2002247F40071C5F204026D
:10073000914238D1DCF8001042F6635221F0E071AA
:1007400041EA0E0141F40001CCF8001040F2000132
:10075000C2F200010968C0F23E528909A1FB0212EF
:10076000910901EB41010C2202EB810100910099FA
:10077000C9B100BF00990139009100990029F9D150
:1007800011E040F2002247F40071C5F204029142E8
:1007900009D1DCF8001021F0E07141EA0E0141F0CE
:1007A0008071CCF800100021002280F8502008460B
:1007B00001B0F0BD0C0000001200000018000000A5
:1007C00000010000B0B582B004460020002C01906A
:1007D00045D0606D30B9204600F0E0F80020A065FB
:1007E00084F8500021688868800006D588684FF634
:1007F000C072C5F6FF72104088608868C00021D4BE
:100800004FF6C0728868C5F6FF7202F18052104040
:1008100000F18050886040F20000C2F200000068E1
:1008200042F663528009C0F23E52A0FB02029009D8
:10083000022202EB400000BF0190019810B1019824
:100840000138F9E78868C0000CD4606D40F01000F2
:100850006065A06D40F00100A065012003E001206B
:1008600002B0B0BD00208A68636D02F0040203F09C
:100870001003D218626D79D122F48172023262655E
:100880008A68D20720D140F2083C4FF600534FF659
:100890000062C5F2040CCFF6FF73CFF6FF725CF86E
:1008A00003E05CF802206FF0FF035CF8033042EADB
:1008B0000E021A43D20707D16268DCF8003023F435
:1008C0007C131A43CCF80020627E636B43EA423209
:1008D000D4E902C31A4394F8203042EA0C02012BF7
:1008E00042EA034207D1D4F824C00023CFF6FE73B6
:1008F00003EB4C431A43A36A33B1D4F82CC003F47E
:10090000707343EA0C031A43D1F80CC04CF207038E
:10091000CFF6F07303EA0C031A43CA608A68120721
:100920002BD494F83030227E5B0094F838C043EA30
:10093000823ECB6844F2020223EA020242EA0E023D
:10094000CA600A69BCF1010F14D140F2FD7322EABA
:10095000030CD4E90F32D4E911E543EA0C031A433E
:1009600042EA0E022A4342F0010205E042F0100181
:10097000012010E022F001020A6122690B6B012ABA
:1009800023F00F0202D1E369013B1A430A63616D50
:10099000012262F30101616502B0B0BD10B5A8B0DB
:1009A000044600202790CDE92500CDE9230001A8C9
:1009B0008821FFF759FC20680021C5F20401884214
:1009C00001D028B010BD4FF4804001904FF080500E
:1009D0001F900120CDE9020010200490072005900F
:1009E0004FF080700224089001A8CDE9064400F081
:1009F00049FA002818BFFFF7EFFC41F24C00C4F29F
:100A00000200016841F400510160016801F40051E5
:100A100000910099016841F004010160006823A978
:100A200000F00400009000980B20249000202590F6
:100A300040F60000C4F60000239400F039F828B016
:100A400010BD0000B0B5044600F01CF9054640F2A8
:100A50000400C2F200000078611C18BF044400BF0B
:100A600000F010F9401BA042FAD3B0BD80B540F2AF
:100A7000E000C2F2000040218022FFF76FFC40F24C
:100A8000D400C2F200004FF480714FF40072BDE850
:100A90008040FFF763BC000040F21441C4F2010142
:100AA0000A68024214BF08607047FFF7DFBF00000A
:100AB0002DE9F04F82B00A68002A00F0D18041F69B
:100AC000000600F13844C4F60006072340F2004C4B
:100AD0004FEAB425B04208BF0623C4F2010C062D2C
:100AE00038BF4FEAB4234FF0000E01240027002541
:100AF000009309E00A68013532FA05F307F10207AD
:100B00000EF1040E00F0AC8004FA05F912EA0908AF
:100B1000F0D0D1F804A00AF00302A2F1010BBBF15E
:100B2000010F11D8D0F808B00323CE68BB402BEAE0
:100B30000303BE40334383604368CAF3001623EACD
:100B40000903AE4033434360032A0BD1C36ACAF39F
:100B5000C00623EA0903AE403343C362022A0ED023
:100B600020E000BF0323D0F80C9003FA07F68B684F
:100B700029EA0606BB403343C360022A12D16FF054
:100B8000030202EA550202440EF01C060F23D2F8BB
:100B9000209003FA06FA0B6929EA0A09B34043EAEE
:100BA00009031362026803234E68BB409A4306F0B0
:100BB0000303BB401A4316F4403F02609AD041F24F
:100BC0006003C4F202031A684FF6084A42F00102B9
:100BD0001A601A68CFF6FF7A02F001020192019AB8
:100BE00025F00302624452F80A900EF00C060F231F
:100BF000009CB34029EA030304FA06F6334342F8A3
:100C00000A30DCF808904B6849EA0806DA0258BF57
:100C100029EA080640F20C49CCF80860C4F2010940
:100C2000D9F800209C0242EA080658BF22EA0806CA
:100C3000C9F80060DCF804209E0342EA080458BFAB
:100C400022EA0804CCF80440DCF80020DB0342EA86
:100C5000080458BF22EA0804CCF80040012449E700
:100C600002B000F000B830BCBDE8C08F0069084099
:100C700018BF0120704700001823002A08BF28234E
:100C8000C150704740F2DC00C2F2000000687047BB
:100C900040F2040040F2DC01C2F20000C2F20001A6
:100CA00000780A68104408607047000080B503208F
:100CB00000F08CF80F2000F009F800281CBF01207C
:100CC00080BD00F02DF8002080BD0000B0B540F2DE
:100CD0000401C2F20001097801B3044640F20000A9
:100CE000C2F200004FF47A720068B2FBF1F1B0FB7F
:100CF000F1F000F05BFF0F2C4FF001050CD858B954
:100D00004FF0FF3021460022002500F033F840F27A
:100D10000800C2F2000004602846B0BD0120B0BD4A
:100D200082B041F25800C4F20200816841F0010132
:100D30008160816801F0010101910199016841F030
:100D400080510160006800F080500090009802B06F
:100D500070470000002848BF704700F01F010122C3
:100D600002FA01F14EF200124009CEF2000242F8FE
:100D70002010704710B54EF60C5CCEF2000CDCF87B
:100D80000030C3F3022E8EF00704042C28BF042485
:100D9000BEF103034FF0FF3E0EFA04F438BF002308
:100DA000A14399400EFA03F39A43114300F16042C4
:100DB00000F00F03090102F56442043B634400287C
:100DC00048BF03F10C02117010BD00004EF60C512B
:100DD000CEF200010A684FF6FF031A4060F30A22C0
:100DE00042F0806040F0FD700860704747F2000CF0
:100DF000C4F2000CDCF80020B0F5007F02F4C06003
:100E00002BD1B0F5007F26D0DCF80000012262F380
:100E10004A20CCF8000040F20000C2F20000006856
:100E2000322358434DF68363C4F21B33A0FB030304
:100E300002EB9340002200BFDCF81410013842F1AD
:100E40000003490501D5002BF6D1DCF8140040055C
:100E500044BF0320704700207047B0F5806FFAD080
:100E6000DCF80000022161F34A20CCF800000020E9
:100E70007047000047F20000C4F20000006800F470
:100E8000C06070472DE9F04782B00446407841F2D7
:100E900088070007C4F2020702D44FF0000A35E0C9
:100EA000606E4FEAB05003280ED84FF0000ADFE81A
:100EB00000F002111C17201D002100F0CDFF82461A
:100EC000BAF1000F0FD11BE04FF0010ABAF1000F89
:100ED00009D115E004F12000002101F085F88246D7
:100EE000BAF1000F0CD0D04612E057F87C0C4FF04E
:100EF000000A40F4803047F87C0CBAF1000FF2D1C0
:100F00003868616E20F44000084338604FF00008F4
:100F10006078C00631D5A06E4FEA306003280CD847
:100F2000DFE800F002111C17201D002100F094FFE3
:100F30008246BAF1000F0FD119E04FF0010ABAF161
:100F4000000F09D113E004F12000002101F04CF85A
:100F50008246BAF1000F0AD0D0460EE057F87C0C5A
:100F600040F4803047F87C0CBAF1000FF4D13868B7
:100F7000A16E20F0407008433860A078800701D44B
:100F8000C24665E057F8300C10F080590BD157F885
:100F9000300C40F0805047F8300C57F8300C00F01F
:100FA00080500190019847F20005C4F200052868BE
:100FB00040F480702860FFF765FE06462868C0058B
:100FC00006D4FFF75FFE801B0328F7D34FF0030A18
:100FD000BAF1000F33D1B86810F4407012D0D4F8D1
:100FE000841088420BD0B868B96820F4407041F48E
:100FF0008031B960B96821F48031B960B860C00748
:1010000003D111E00020C0070ED0FFF73BFE0646DB
:1010100041F28935B868800706D4FFF733FE801B9C
:10102000A842F7D34FF0030ABAF1000F07D1B8680E
:10103000D4F8841020F440700843C246B860B9F177
:10104000000F05D157F8300C20F0805047F8300CD5
:101050002068C10716D181071CD4410722D401079B
:1010600028D4C1062ED4810634D481053AD4410552
:1010700040D4410646D401064CD4C10552D4800464
:1010800058D471E03968A26B21F003011143396033
:101090008107E2D53968E26B21F00C011143396018
:1010A0004107DCD53968226C21F0300111433960E9
:1010B0000107D6D53968626C21F0C001114339604F
:1010C000C106D0D53968A26C21F440711143396052
:1010D0008106CAD53968E26C21F440611143396058
:1010E0008105C4D53968E26D21F44021114339608E
:1010F0004105BED53968226E21F440111143396093
:101100004106B8D53968226D21F440511143396048
:101110000106B2D53968626D21F44041114339604E
:10112000C105ACD53968A26D21F440311143396055
:10113000800419D53968E06E21F040610143B0F1B7
:10114000806F396009D0B0F1006F0DD157F87C0C79
:1011500040F4801047F87C0C06E0201D012100F0CF
:101160007BFE002818BF8246A078000719D5396891
:10117000206F21F040610143B0F1806F396009D0E8
:10118000B0F1006F0DD157F87C0C40F4801047F897
:101190007C0C06E0201D012100F05EFE002818BF37
:1011A0008246A078400719D53968606F21F0406108
:1011B0000143B0F1806F396009D0B0F1006F0DD1FB
:1011C00057F87C0C40F4801047F87C0C06E0201D9A
:1011D000012100F041FE002818BF824660784006D9
:1011E00018D53968A06F21F040510143B0F1005F7C
:1011F000396007D0B0F1805F0CD1201D022100F0D2
:101200002BFE04E004F12000022100F0EDFE002896
:1012100018BF82462068010405D53968E26F21F0C5
:10122000804111433960C00306D53868D4F8801076
:1012300020F0004008433860504602B0BDE8F08717
:101240002DE9F04381B0002800F0888042F20008C8
:10125000C4F202080446D8F800000D4600F007006A
:1012600088420CD2D8F8000020F007002843C8F8C4
:101270000000D8F8000000F00700A8426ED12068F6
:1012800041F208098107C4F202090DD5A168D9F815
:10129000002002F0F002914206D9D9F8002022F095
:1012A000F0021143C9F80010C0074DD12068810732
:1012B0000DD5A168D9F8002002F0F002914206D2C3
:1012C000D9F8002022F0F0021143C9F80010D8F834
:1012D000001001F00701A9420CD9D8F8001021F044
:1012E00007012943C8F80010D8F8001001F00701E1
:1012F000A94233D1410707D5D9F80010E26821F49B
:10130000E0611143C9F80010000708D5D9F80000C2
:10131000216920F4605040EAC100C9F80000D9F802
:101320000000D9F8041010F00C0005D00C2837D1BB
:1013300001F00301012933D159F8081C090711D420
:10134000D9F88C10090A10E0606898B3022853D0CD
:10135000032856D159F8081C89012FD4012001B067
:10136000BDE8F08359F8081C090942F6E40201F0CF
:101370000F01C0F6000252F8211000280A4618BFDB
:1013800000220C285BD1D9F8040000F003000228E9
:101390003CD0032804BF41F20021C0F27A0139E0B9
:1013A000042868D008286CD141F200220021C0F244
:1013B0007A02E6E759F8081C8907CFD5D9F800105A
:1013C00021F003010843C9F80000FFF75BFC064663
:1013D00041F28837D9F80000616800F00C00B0EBEA
:1013E000810F3FF463AFFFF74DFC801BB842F1D98A
:1013F000032001B0BDE8F08359F8081C8903ADD57E
:10140000DCE759F8081C4905A8D5D7E742F20041A6
:10141000C0F2F401D9F80400D9F80420C0F3021096
:10142000C2F306225143D9F804200130B1FBF0F099
:10143000C2F34161022202EB4101B0FBF1F2D9F8A3
:10144000000042F6D201C0F30310C0F60001085CB0
:1014500000F01F0022FA00F140F20800C2F2000082
:1014600040F200020068C2F20002116001B0BDE863
:10147000F043FFF72BBC42F200420021C0F2F4021D
:101480007FE7002200217CE72DE9F04383B00028AC
:1014900000F0E38241F200060446C4F20206B0689E
:1014A000F168227800F00C09D00601F003081DD481
:1014B0002078C00700F0EF80B9F1080F44D0B9F1EF
:1014C0000C0F08BFB8F1030F3ED06568B5F5A02F2B
:1014D00000F0BD80B5F5803F00F0BD80306820F49D
:1014E00080303060306820F48020B7E0B9F1000F20
:1014F0001BD0B9F10C0F08BFB8F1010F15D0A169CD
:101500003068002971D040F001003060FFF7BAFB6D
:10151000054600BF306880077AD4FFF7B3FB401B55
:1015200002284FF00300F5D9F2E23068800703D5B6
:10153000A069002800F09182256A306800070CD469
:10154000D6F89400000909E03068800340F1A380D8
:101550006068002840F09F807FE2306800F0F00073
:10156000854219D9B06DC00064D4B06D40F0805090
:10157000B065B06D00F0805001900198FFF77AFCE3
:10158000B16D21F08051B165B0F5007F57D0802D4D
:1015900040F2F4810320FBE13068B9F1000F40F024
:1015A00008003060306820F0F00040EA050030604C
:1015B0007068E16920F47F4040EA0120706040F0EB
:1015C0003A82B06DC00000F10382B06D40F08050EF
:1015D000B065B06D00F0805002900298FFF74AFCB1
:1015E000B16D21F08051B165F4E120F0010030606F
:1015F000FFF748FB054600BF306880077FF558AF0E
:10160000FFF740FB401B02284FF00300F4D97FE2B4
:10161000306840F0080030603068D4E9072120F0DD
:10162000F00008433060706820F47F4040EA0220F8
:1016300070603DE7FFF71EFCB0F5007FA7D1812D5C
:10164000C0F0A5810120A02D88BF0220A0E1306854
:1016500040F480203060306840F480303060FFF724
:1016600011FB002D054613D03068800313D4FFF71B
:1016700009FB401B64284FF00300F5D948E200BF86
:10168000FFF700FB401B64284FF0030000F240828C
:1016900030688003F4D4207880072CD5B9F1040F8A
:1016A0001BD0B9F10C0F08BFB8F1020F15D0E168DB
:1016B0003068002900F04F8140F480703060FFF7FF
:1016C000E1FA0546306840050ED4FFF7DBFA401B0F
:1016D00002284FF00300F5D91AE23068400503D51F
:1016E000E068002800F0B9817068216920F0F850A6
:1016F00040EA01607060207800075ED420784007DF
:1017000075D4A06A002800F07A81022840F0B980E0
:10171000F068E16A00F003028A4240F0C980226B5F
:101720006FF00F0300F0700103EB0212914240F0E2
:10173000BF80616B00F4FE42B2EB012F40F0B88035
:10174000A16B00F40032073918BF01218A4240F032
:10175000AF80E26B0023CFF6E07303EA025200F49D
:10176000C001A2F50012914240F0A280216C4FF01E
:101770007E4202EA016100F0C06001F17E418842D0
:1017800040F096803068800100F13981306840F087
:1017900080703060F06840F08070F060FFF772FA9F
:1017A00004463068800100F12A81FFF76BFA001BC4
:1017B00002284FF00300F4D9AAE16169D6F8940039
:1017C00000294AD040F00100C6F89400FFF75AFA09
:1017D000054600BFD6F8940080078FD4FFF752FA71
:1017E000401B0228F6D9032003B0BDE8F083B06D9A
:1017F00010F0805808D1B06D40F08050B065B06DE9
:1018000000F080500090009847F20007C4F20007F3
:101810003868C00511D4386840F480703860FFF72C
:1018200031FA05463868C00507D4FFF72BFA401B8C
:1018300002284FF00300F5D96AE1A568052D56D0BE
:10184000012D5AD0D6F8900020F00100C6F8900083
:10185000D6F8900020F0040053E020F00100C6F814
:101860009400FFF70FFA0546D6F8940080077FF53D
:1018700045AFFFF707FA401B02284FF00300F3D9EA
:1018800046E1B9F10C0F00F0E880306820F080707C
:101890003060FFF7F7F904463068800140F1A88016
:1018A000FFF7F0F9001B02284FF00300F4D92FE1F5
:1018B000B9F10C0F00F0D180306840015CBF306896
:1018C0005FEAC00000F1C980306820F080703060AD
:1018D000FFF7D8F905463068800140F12581FFF710
:1018E000D1F9401B02284FF00300F4D910E1D6F8DB
:1018F000900040F00400C6F89000D6F8900040F048
:101900000100C6F89000FFF7BDF9002D054641F231
:10191000883713D0D6F89000800713D4FFF7B2F9B8
:10192000401BB8424FF00300F4D9F1E0FFF7AAF9E9
:10193000401BB8424FF0030000F2EA80D6F8900056
:101940008007F3D4B8F1000F7FF4DBAEB06D20F068
:101950008050B065D5E620F480703060FFF792F9D2
:10196000054600BF306840057FF5C5AEFFF78AF930
:10197000401B02284FF00300F4D9C9E0A5F1700024
:10198000B0FA80F04009802D08BF022000E000205E
:1019900042F20001C4F202010A6822F00702024486
:1019A0000A60096801F00701814256D1306840F0B1
:1019B000080030603068D4E9072120F0F0000843C7
:1019C0003060706820F47F4040EA0220706032E0AE
:1019D000FFF750FAB0F5007F06D1812D13D3012017
:1019E000A02D88BF022018E0802D0ED9032014E01E
:1019F000F0684FF6FC71CFF6EE610840F060002011
:101A000003B0BDE8F083002007E0A5F17000B0FA54
:101A100080F04009802D08BF022042F20001C4F28C
:101A200002010A6822F0070202440A60096801F014
:101A30000701814211D1B068F16810F00C0005D0A7
:101A40000C282AD101F00301012926D131680907A8
:101A500007D4D6F89410090A05E0012003B0BDE8C8
:101A6000F0833168090942F6E40201F00F01C0F683
:101A7000000252F8211000280A4618BF00220C2844
:101A80002BD1F06800F00300022810D0032804BF17
:101A900041F20021C0F27A010DE004283BD0082871
:101AA0003FD141F200220021C0F27A02E7E742F280
:101AB0000041C0F2F401F068F268C0F30210C2F312
:101AC00006225143F2680130B1FBF0F0C2F34161EC
:101AD000022202EB4101B0FBF1F2B06842F6D20102
:101AE000C0F30310C0F60001085C00F01F0022FAEA
:101AF00000F140F20800C2F2000040F2000200686B
:101B0000C2F200021160FFF7E1F800283FF4D0AC08
:101B100003B0BDE8F08342F200420021C0F2F402BB
:101B2000ADE700220021AAE7F06848F28C01CFF669
:101B30009D1104F12C0700EA010C8ECFD4E90F545B
:101B40006FF00F0040F2000E00EB0210CFF6E07EC7
:101B500041EA0C010EEA05554FF07E420843A5F517
:101B6000001502EA046240EA032002F17E420EF50B
:101B7000F014284304EA473710433843F0603068D4
:101B800040F080703060F06840F08070F060FFF7E7
:101B900079F80446306880013FF531AFFFF772F8FD
:101BA000001B02284FF00300F4D9B1E7411E0020CA
:101BB000B0EB116F1CBF012070474EF21002CEF245
:101BC000000251604EF62351CEF20001F0230B705B
:101BD0000721906011607047FEE7000010B58AB0E1
:101BE00040F2700000210024C2F20000C5F204019E
:101BF000C0E900144FF4807104220183012109948B
:101C0000CDE90744CDE90544CDE90344CDE90144DC
:101C1000C0E90244C0E90442C16180F82040C0E943
:101C20000A4480F83040446380F83840FEF7CAFD2B
:101C3000002818BFFEF7D0FB40F27000C2F200008F
:101C400007A90794FEF7CEFB002818BFFEF7C4FBD8
:101C50000420C0F66000019006207F210290002041
:101C6000049104210390CDE9051040F27000C2F206
:101C7000000001A9FEF71EFC002818BFFEF7ACFB10
:101C80000AB010BD2DE9F04F87B0002741F24C009B
:101C90000697CDE90477CDE90277C4F20200016826
:101CA000012241F08001016001684FF0030801F05A
:101CB0008001019101990168012441F00401016052
:101CC000016801F0040101910199016841F00101ED
:101CD0000160016801F0010101910199016841F081
:101CE000020101600068032100F0020001900198E8
:101CF0004FF09040FEF7C0FF4FF0904020210022AF
:101D0000FEF7BAFF40F20049C4F6000909F5806504
:101D10002846802101224FF0800BFEF7ADFF484698
:101D200040210122FEF7A8FF232002AECDE90204E4
:101D30004FF090403146CDE90448FEF7B9FEC0208F
:101D400002904FF4441A4FF090403146CDE903A47D
:101D5000FEF7AEFE4FF48260CDE902070227484647
:101D600031460497FEF7A4FE28463146CDE902B479
:101D7000CDE90448FEF79CFE4FF44070CDE9020A1D
:101D80004FF0904031460497FEF792FE4020CDE997
:101D9000020448463146CDE90448FEF789FE172083
:101DA00000210022FEF7E6FF1720FEF7D3FF07B061
:101DB00000F000B830BCBDE8C08F0000FEE70000B6
:101DC000FEE70000704700002DE9F0479FED201B63
:101DD00080465AEC109B54EC117B0CE0002501224C
:101DE0004FF090400221FEF747FF4FF09040012155
:101DF0002A46FEF741FFD8F8040000F061FB0246D6
:101E00000B464846514600F03FFC3A4623460546FD
:101E10000E4600F04AFD0028E0D1284631463A46F9
:101E2000234600F02DFD10B101250022D8E74FF028
:101E3000904001210022FEF71FFF4FF09040022149
:101E40000022BDE8F047FEF717BF00BF00BF00BF8C
:101E500000000000000000002DE9F04141F2000404
:101E6000C4F20204E2680E469107804613D0E1688E
:101E7000D8F8000001F0030181420AD148B1E068BE
:101E8000D8F80410C0F302100130884201D10025B7
:101E90003AE0012538E0D8F8000003280DD00228E8
:101EA00019D0012821D12168012301F00202C1F3D8
:101EB000400183EA5205D9B926E0216889034FF031
:101EC000010149D4226802F4802381EA9345C2F3D8
:101ED000804169B918E02168012301F48062C1F3EF
:101EE000802183EA922519B90EE00125002159B11C
:101EF000E168D8F804206FF00F0321F0730103EBC1
:101F0000021211430843E06015B12846BDE8F08194
:101F1000206820F080602060FEF7B4FE074600BF16
:101F20002068000105D5FEF7ADFEC01B0328F7D3DE
:101F30000325002DE9D1012E12D02EBB206948F2D5
:101F4000FF01CFF6FD710840D8E902120023CFF659
:101F5000FE7303EA423227E000250029C8D1D3E707
:101F600048F2FF012069CFF6FF11D8F810200023B6
:101F700001F1B461CFF6E0730840D8F8081003EA25
:101F80000252A2F500120FE0206948F2FF01D8F8D2
:101F90001420CFF6FF114FF07E430840D8F8081008
:101FA00003EA026202F17E4240EA0120104320610E
:101FB000206840F080602060FEF764FE064600BFA7
:101FC0002068000105D4FEF75DFE801B0328F7D3CF
:101FD0000325002D99D1D8F8180021690843206104
:101FE0002846BDE8F08100002DE9F04141F20004EF
:101FF000C4F20204E2680E469107804613D0E168FD
:10200000D8F8000001F0030181420AD148B1E0682C
:10201000D8F80410C0F302100130884201D1002525
:102020003AE0012538E0D8F80000032817D002284C
:102030000BD0012821D12168012301F00202C1F354
:10204000400183EA5205D9B926E02168012301F451
:102050008062C1F3802183EA922589B91CE021685E
:1020600089034FF001016CD4226802F4802381EAD5
:102070009345C2F3804119B90EE00125002159B101
:10208000E168D8F804206FF00F0321F0730103EB2F
:10209000021211430843E06015B12846BDE8F08103
:1020A000206820F080502060FEF7ECFD074600BF5E
:1020B0002068800005D5FEF7E5FDC01B0328F7D397
:1020C0000325002DE9D16169D8F808004FEA002006
:1020D0006EB148F2FF02CFF6FF121140D8F810207F
:1020E0004FF07E4303EA026202F17E420BE048F2C7
:1020F000FF02CFF6FD721140D8F80C200023CFF676
:10210000FE7303EA4232084310436061206840F0E6
:1021100080502060FEF7B6FD064600BF20688000B4
:1021200005D4FEF7AFFD801B0328F7D30325002D50
:10213000B3D1D8F814006169084360612846BDE84E
:10214000F081002500299BD1A6E700004FF09040C8
:1021500001210022FEF790BD4FF0904002210022A5
:10216000FEF78ABD704700004FF090400221012227
:10217000FEF782BDFEF78CBD10B596B005A84421D0
:10218000FEF772F800244FF400700494CDE9024485
:10219000CDE90044FEF72AFE18B1EFF3108072B6C5
:1021A000FEE710206021059001200D910221CDE96C
:1021B0000B04CDE90F101190142012900720CDE9E7
:1021C000130105A81591FFF75FF920B1EFF3108017
:1021D00072B600BFFEE70F200090032001900020A0
:1021E000CDE90200049068460221FFF729F820B1EA
:1021F000EFF3108072B600BFFEE716B010BD00000E
:102200004EF68850CEF20000016841F47001016082
:1022100070470000FEE70000FEF748FDFFF7ACFF47
:10222000FFF730FDFFF7DAFCFFF790FFFFF79CFFA9
:1022300040F6B830FEF706FCFFF788FFFFF78CFF8B
:102240004FF090404021FEF711FD40F2E004C2F251
:10225000000420704FF090408021FEF707FD607071
:102260004FF090404021FEF701FDA0704FF09040EC
:102270008021FEF7FBFCE07000254FF090404FF40A
:1022800080716560FEF7F2FC40F2D404C2F20004F3
:1022900020704FF090404FF40071FEF7E7FC607043
:1022A0004FF090404FF48071FEF7E0FCA0704FF0CB
:1022B00090404FF40071FEF7D9FC9FED078BE07062
:1022C000656000BFB0EE480AF0EE680A2046FFF7EE
:1022D0007BFDF7E700BF00BF0000000000407F402B
:1022E00010B591EA030F48BF83F0004300F1D48199
:1022F000841A71EB030C05D2121943EB0C03001B7B
:1023000061EB0C014FEA1154A4EB135CDFF81CE104
:102310001EEA430F18BF9EEA445F00F0748021EA72
:10232000045123EA0E0343F48013DCF1200E32D370
:1023300022FA0CFE10EB0E0023FA0CFE41EB0E010C
:10234000CCF1200E03FA0EFE10EB0E00CCF1200EA5
:1023500051F10001B1F5801F32D201EB045112FAA4
:102360000EF2BDE8104058BF7047401C38BF5FEA0E
:10237000420218BF7047002814BF20F0010041F14D
:1023800000014FEA410313F5001F38BF7047A1F168
:10239000C04100F073B9012A43EB0302ACF1200CF9
:1023A000DCF11F0E32BF4FF0000E23FA0CF310EBDE
:1023B000030041EB0451B4EB115FD0D0A1EB045109
:1023C00001F58011490801EB04515FEA30000ED39A
:1023D00050F1000038BF12FA0EFE08D1BDE81040DF
:1023E000C9E7401C38BF5FEA4202CAD1C3E7BDE873
:1023F00010404FEA410313F5001F38BF7047A1F1A9
:10240000C04100F03BB99EEA445F08D011EA5E0F7C
:10241000BDE8104004BF01F0004100207047BDE856
:10242000104070B500F0DCF864FBBE3E0000E0FF39
:10243000491058BFC1F140415B1058BFC3F1404340
:102440008B42EFF30080704751EA030C17D41CF560
:10245000801F58BFBCF5801F00F10680994218BF4D
:10246000704708BF9042704707D711F5801F58BFCB
:1024700013F5801F19D499427047894270471CF5A3
:10248000801F08D5BCF5801FF7D58B4218BF704759
:1024900008BF824270474FF4001C1CEB410F38BF4D
:1024A0001CEB430F01D28B42704770B500F098F8D7
:1024B000922449004FF000514FF08053FFF7B8BF0E
:1024C00010F0004248BF4042B0FA80F310FA03F126
:1024D0000AD0C3F11D0303F5806302EB03524FEAF8
:1024E000415002EBD12170474FF0000070470000CF
:1024F00051EA030C17D41CF5801F58BFBCF5801F90
:1025000000F10680994218BF704708BF904270479B
:1025100007D711F5801F58BF13F5801F19D49942B2
:102520007047894270471CF5801F08D5BCF5801F95
:10253000F7D58B4218BF704708BF824270474FF4EF
:10254000001C1CEB410F38BF1CEB430F01D28B4228
:10255000704770B500F044F8922449004FF0805164
:102560004FF00053FFF764BF51EA030C17D41CF57A
:10257000801F58BFBCF5801F00F10680994218BF2C
:10258000704708BF9042704707D711F5801F58BFAA
:1025900013F5801F19D499427047894270471CF582
:1025A000801F08D5BCF5801FF7D58B4218BF704738
:1025B00008BF824270474FF4001C1CEB410F38BF2C
:1025C0001CEB430F01D28B42704770B500F008F846
:1025D000922449004FF000514FF08053FFF728BF7D
:1025E0000EF1020E2EF0030E5EF8046B364205D497
:1025F000012A43EB030515F5001F12D8012841EB12
:10260000010C1CF5001F0CD80ED14FEAD17C0CEB4D
:102610004C0C0CF1020C15F5001F08BF4CEBD37CE1
:1026200004E04FF0080C01E04FEAD37C0CEB4C05C2
:1026300026FA05F606F00706B6F1040C06D20EEBF4
:10264000860CBDE870404CF0010C6047DFE80CF0F0
:10265000090B02024FF00041A1F500214FF00000EC
:1026600070BD19461046012851EB010418BFD4F57E
:10267000001484BF002001F0004170BD0808A0F5DF
:1026800000114FEA3101704710B591EA030F48BFBE
:1026900083F000433FF52CAE841A71EB030C07D294
:1026A0008CF0004C121943EB0C03001B61EB0C0186
:1026B0004FEA1154A4EB135CDFF8A4E11EEA430FC8
:1026C00018BF9EEA445F00F0B48021EA045123EA77
:1026D0006E035242C3EB6E0338BF5B1EDCF1200E6B
:1026E00025D322FA0CFE10EB0E0043FA0CFE41EB50
:1026F0000E01CCF1200E03FA0EFE10EB0E00CCF111
:10270000200E51F1000129D401EB045112FA0EF20E
:10271000BDE8104058BF7047401C1CBFB2F1004FCD
:10272000704700280CBF491C20F00100704712EBD5
:10273000020E43EB030218BF4FF0010E4EEA4202B5
:10274000ACF1200CDCF11E0E56D943FA0CFE10EB56
:102750000E00CCF11E0E51F1FF31D5D50EF1010E58
:1027600012FA0EFE404141EB010101EB445C5FEACD
:102770005C5C10D901EB045110EBDE7038BFBEF188
:10278000004FBDE8104018BF704700280CBF491C1F
:1027900020F00100704734D24FEAD42C24F40064B6
:1027A00011F500111BD0B1FA81F20B3AA41AA41E44
:1027B000D2F12003914030FA03F31943904001EB2A
:1027C000CC7101EB0451002CBDE81040A8BF70474C
:1027D00001F1C04101F000414FF000007047B0FA34
:1027E00080F310FA03F102D1BDE810407047E41AFB
:1027F000173C4805C90AE2E701EB0451BDE8104067
:10280000704749104FEA300001EB0451BDE8104019
:1028100002E04FF0000170474A0008BF0042F8D0C4
:10282000B2F5001F28BF704701F000414FF00000D3
:1028300070479EEA445F07D011EA5E0FBDE8104082
:1028400004BF002100207047BDE8104070B5FFF7BD
:10285000C7FE00BF40DFF63E104683F000417047E0
:102860000000E0FF10B5FFF7EFFD0CBF01200020D6
:1028700010BD10B5FFF7E8FD14BF0120002010BD0A
:1028800010B5FFF735FE8CBF0120002010BD10B53C
:10289000FFF72EFE2CBF0120002010BD10B5FFF762
:1028A00063FE94BF0120002010BD10B5FFF75CFE51
:1028B00034BF0120002010BDF1EE100A4FF6FF7169
:1028C000C0F2C03120EA010040F04070E1EE100A91
:1028D000704700000000000000000102030406072A
:1028E00008090000A0860100400D0300801A0600C0
:1028F00000350C0040420F0080841E0000093D009E
:1029000000127A000024F40000366E010048E8014D
:10291000006CDC02382900080000002010000000D4
:10292000C40100084829000810000020D806000053
:10293000E00100080000000000093D000100000067
:0829400010000000000000007F
:040000050800018965
:00000001FF
